{
  "address": "0x5FbDB2315678afecb367f032d93F642f64180aa3",
  "abi": [
    {
      "inputs": [
        {
          "internalType": "address",
          "name": "_gameToken",
          "type": "address"
        }
      ],
      "stateMutability": "nonpayable",
      "type": "constructor"
    },
    {
      "anonymous": false,
      "inputs": [
        {
          "indexed": true,
          "internalType": "address",
          "name": "account",
          "type": "address"
        },
        {
          "indexed": true,
          "internalType": "address",
          "name": "operator",
          "type": "address"
        },
        {
          "indexed": false,
          "internalType": "bool",
          "name": "approved",
          "type": "bool"
        }
      ],
      "name": "ApprovalForAll",
      "type": "event"
    },
    {
      "anonymous": false,
      "inputs": [
        {
          "indexed": true,
          "internalType": "address",
          "name": "previousOwner",
          "type": "address"
        },
        {
          "indexed": true,
          "internalType": "address",
          "name": "newOwner",
          "type": "address"
        }
      ],
      "name": "OwnershipTransferred",
      "type": "event"
    },
    {
      "anonymous": false,
      "inputs": [
        {
          "indexed": true,
          "internalType": "address",
          "name": "operator",
          "type": "address"
        },
        {
          "indexed": true,
          "internalType": "address",
          "name": "from",
          "type": "address"
        },
        {
          "indexed": true,
          "internalType": "address",
          "name": "to",
          "type": "address"
        },
        {
          "indexed": false,
          "internalType": "uint256[]",
          "name": "ids",
          "type": "uint256[]"
        },
        {
          "indexed": false,
          "internalType": "uint256[]",
          "name": "values",
          "type": "uint256[]"
        }
      ],
      "name": "TransferBatch",
      "type": "event"
    },
    {
      "anonymous": false,
      "inputs": [
        {
          "indexed": true,
          "internalType": "address",
          "name": "operator",
          "type": "address"
        },
        {
          "indexed": true,
          "internalType": "address",
          "name": "from",
          "type": "address"
        },
        {
          "indexed": true,
          "internalType": "address",
          "name": "to",
          "type": "address"
        },
        {
          "indexed": false,
          "internalType": "uint256",
          "name": "id",
          "type": "uint256"
        },
        {
          "indexed": false,
          "internalType": "uint256",
          "name": "value",
          "type": "uint256"
        }
      ],
      "name": "TransferSingle",
      "type": "event"
    },
    {
      "anonymous": false,
      "inputs": [
        {
          "indexed": false,
          "internalType": "string",
          "name": "value",
          "type": "string"
        },
        {
          "indexed": true,
          "internalType": "uint256",
          "name": "id",
          "type": "uint256"
        }
      ],
      "name": "URI",
      "type": "event"
    },
    {
      "inputs": [
        {
          "internalType": "address",
          "name": "account",
          "type": "address"
        },
        {
          "internalType": "uint256",
          "name": "id",
          "type": "uint256"
        }
      ],
      "name": "balanceOf",
      "outputs": [
        {
          "internalType": "uint256",
          "name": "",
          "type": "uint256"
        }
      ],
      "stateMutability": "view",
      "type": "function"
    },
    {
      "inputs": [
        {
          "internalType": "address[]",
          "name": "accounts",
          "type": "address[]"
        },
        {
          "internalType": "uint256[]",
          "name": "ids",
          "type": "uint256[]"
        }
      ],
      "name": "balanceOfBatch",
      "outputs": [
        {
          "internalType": "uint256[]",
          "name": "",
          "type": "uint256[]"
        }
      ],
      "stateMutability": "view",
      "type": "function"
    },
    {
      "inputs": [
        {
          "internalType": "uint256",
          "name": "index",
          "type": "uint256"
        },
        {
          "internalType": "uint256",
          "name": "num",
          "type": "uint256"
        }
      ],
      "name": "buy",
      "outputs": [],
      "stateMutability": "nonpayable",
      "type": "function"
    },
    {
      "inputs": [],
      "name": "gameToken",
      "outputs": [
        {
          "internalType": "contract ERC20",
          "name": "",
          "type": "address"
        }
      ],
      "stateMutability": "view",
      "type": "function"
    },
    {
      "inputs": [
        {
          "internalType": "address",
          "name": "account",
          "type": "address"
        },
        {
          "internalType": "address",
          "name": "operator",
          "type": "address"
        }
      ],
      "name": "isApprovedForAll",
      "outputs": [
        {
          "internalType": "bool",
          "name": "",
          "type": "bool"
        }
      ],
      "stateMutability": "view",
      "type": "function"
    },
    {
      "inputs": [],
      "name": "owner",
      "outputs": [
        {
          "internalType": "address",
          "name": "",
          "type": "address"
        }
      ],
      "stateMutability": "view",
      "type": "function"
    },
    {
      "inputs": [
        {
          "internalType": "uint256",
          "name": "",
          "type": "uint256"
        }
      ],
      "name": "prices",
      "outputs": [
        {
          "internalType": "uint256",
          "name": "",
          "type": "uint256"
        }
      ],
      "stateMutability": "view",
      "type": "function"
    },
    {
      "inputs": [
        {
          "internalType": "uint256",
          "name": "index",
          "type": "uint256"
        },
        {
          "internalType": "uint256",
          "name": "num",
          "type": "uint256"
        }
      ],
      "name": "refund",
      "outputs": [],
      "stateMutability": "nonpayable",
      "type": "function"
    },
    {
      "inputs": [],
      "name": "renounceOwnership",
      "outputs": [],
      "stateMutability": "nonpayable",
      "type": "function"
    },
    {
      "inputs": [
        {
          "internalType": "address",
          "name": "from",
          "type": "address"
        },
        {
          "internalType": "address",
          "name": "to",
          "type": "address"
        },
        {
          "internalType": "uint256[]",
          "name": "ids",
          "type": "uint256[]"
        },
        {
          "internalType": "uint256[]",
          "name": "amounts",
          "type": "uint256[]"
        },
        {
          "internalType": "bytes",
          "name": "data",
          "type": "bytes"
        }
      ],
      "name": "safeBatchTransferFrom",
      "outputs": [],
      "stateMutability": "nonpayable",
      "type": "function"
    },
    {
      "inputs": [
        {
          "internalType": "address",
          "name": "from",
          "type": "address"
        },
        {
          "internalType": "address",
          "name": "to",
          "type": "address"
        },
        {
          "internalType": "uint256",
          "name": "id",
          "type": "uint256"
        },
        {
          "internalType": "uint256",
          "name": "amount",
          "type": "uint256"
        },
        {
          "internalType": "bytes",
          "name": "data",
          "type": "bytes"
        }
      ],
      "name": "safeTransferFrom",
      "outputs": [],
      "stateMutability": "nonpayable",
      "type": "function"
    },
    {
      "inputs": [
        {
          "internalType": "address",
          "name": "operator",
          "type": "address"
        },
        {
          "internalType": "bool",
          "name": "approved",
          "type": "bool"
        }
      ],
      "name": "setApprovalForAll",
      "outputs": [],
      "stateMutability": "nonpayable",
      "type": "function"
    },
    {
      "inputs": [
        {
          "internalType": "string",
          "name": "newuri",
          "type": "string"
        }
      ],
      "name": "setURI",
      "outputs": [],
      "stateMutability": "nonpayable",
      "type": "function"
    },
    {
      "inputs": [
        {
          "internalType": "bytes4",
          "name": "interfaceId",
          "type": "bytes4"
        }
      ],
      "name": "supportsInterface",
      "outputs": [
        {
          "internalType": "bool",
          "name": "",
          "type": "bool"
        }
      ],
      "stateMutability": "view",
      "type": "function"
    },
    {
      "inputs": [
        {
          "internalType": "address",
          "name": "newOwner",
          "type": "address"
        }
      ],
      "name": "transferOwnership",
      "outputs": [],
      "stateMutability": "nonpayable",
      "type": "function"
    },
    {
      "inputs": [
        {
          "internalType": "uint256",
          "name": "index",
          "type": "uint256"
        },
        {
          "internalType": "uint256",
          "name": "price",
          "type": "uint256"
        }
      ],
      "name": "updatePrice",
      "outputs": [],
      "stateMutability": "nonpayable",
      "type": "function"
    },
    {
      "inputs": [
        {
          "internalType": "uint256",
          "name": "",
          "type": "uint256"
        }
      ],
      "name": "uri",
      "outputs": [
        {
          "internalType": "string",
          "name": "",
          "type": "string"
        }
      ],
      "stateMutability": "view",
      "type": "function"
    }
  ],
  "transactionHash": "0xa72533ce88b447305957d85d41650905145b972066c1d7817d71252125aee3cd",
  "args": [
    "0xB5CE03331Ba5E70782931fb91032fed93cB066F3"
  ],
  "numDeployments": 1,
  "solcInputHash": "2682734ffae20647aaccc8f4371e0f10",
  "bytecode": "0x60806040523480156200001157600080fd5b506040516200220c3803806200220c8339810160408190526200003491620001fe565b604051806060016040528060278152602001620021e5602791396200005981620000ed565b50620000653362000106565b600560205268056bc75e2d631000007f1471eb6eb2c5e789fc3de43f8ce62938c7d1836ec861730447e2ada8fd81017b556002600052683635c9adc5dea000007f89832631fb3c3307a103ba2c84ab569c64d6182a18893dcd163f0f1c2090733a55600480546001600160a01b0319166001600160a01b03929092169190911790556200026d565b80516200010290600290602084019062000158565b5050565b600380546001600160a01b038381166001600160a01b0319831681179093556040519116919082907f8be0079c531659141344cd1fd0a4f28419497f9722a3daafe3b4186f6b6457e090600090a35050565b828054620001669062000230565b90600052602060002090601f0160209004810192826200018a5760008555620001d5565b82601f10620001a557805160ff1916838001178555620001d5565b82800160010185558215620001d5579182015b82811115620001d5578251825591602001919060010190620001b8565b50620001e3929150620001e7565b5090565b5b80821115620001e35760008155600101620001e8565b6000602082840312156200021157600080fd5b81516001600160a01b03811681146200022957600080fd5b9392505050565b600181811c908216806200024557607f821691505b602082108114156200026757634e487b7160e01b600052602260045260246000fd5b50919050565b611f68806200027d6000396000f3fe608060405234801561001057600080fd5b506004361061010a5760003560e01c806382367b2d116100a2578063c3dfdae611610071578063c3dfdae614610246578063d6febde814610259578063e985e9c51461026c578063f242432a146102a8578063f2fde38b146102bb57600080fd5b806382367b2d146101db5780638da5cb5b146101ee578063a22cb46514610213578063bc31c1c11461022657600080fd5b80632eb2c2d6116100de5780632eb2c2d61461018d5780634e1273f4146101a05780635af36e3e146101c0578063715018a6146101d357600080fd5b8062fdd58e1461010f57806301ffc9a71461013557806302fe5305146101585780630e89341c1461016d575b600080fd5b61012261011d3660046118a9565b6102ce565b6040519081526020015b60405180910390f35b6101486101433660046119c1565b610364565b604051901515815260200161012c565b61016b6101663660046119fb565b6103b6565b005b61018061017b366004611a4c565b6103ca565b60405161012c9190611be3565b61016b61019b366004611763565b61045e565b6101b36101ae3660046118d3565b6104aa565b60405161012c9190611ba2565b61016b6101ce366004611a65565b6105d4565b61016b61069f565b61016b6101e9366004611a65565b6106b3565b6003546001600160a01b03165b6040516001600160a01b03909116815260200161012c565b61016b610221366004611872565b61071d565b610122610234366004611a4c565b60056020526000908152604090205481565b6004546101fb906001600160a01b031681565b61016b610267366004611a65565b610728565b61014861027a366004611730565b6001600160a01b03918216600090815260016020908152604080832093909416825291909152205460ff1690565b61016b6102b636600461180d565b610802565b61016b6102c9366004611715565b610847565b60006001600160a01b03831661033e5760405162461bcd60e51b815260206004820152602a60248201527f455243313135353a2061646472657373207a65726f206973206e6f742061207660448201526930b634b21037bbb732b960b11b60648201526084015b60405180910390fd5b506000908152602081815260408083206001600160a01b03949094168352929052205490565b60006001600160e01b03198216636cdb3d1360e11b148061039557506001600160e01b031982166303a24d0760e21b145b806103b057506301ffc9a760e01b6001600160e01b03198316145b92915050565b6103be6108bd565b6103c781610917565b50565b6060600280546103d990611da3565b80601f016020809104026020016040519081016040528092919081815260200182805461040590611da3565b80156104525780601f1061042757610100808354040283529160200191610452565b820191906000526020600020905b81548152906001019060200180831161043557829003601f168201915b50505050509050919050565b6001600160a01b03851633148061047a575061047a853361027a565b6104965760405162461bcd60e51b815260040161033590611bf6565b6104a3858585858561092a565b5050505050565b6060815183511461050f5760405162461bcd60e51b815260206004820152602960248201527f455243313135353a206163636f756e747320616e6420696473206c656e677468604482015268040dad2e6dac2e8c6d60bb1b6064820152608401610335565b6000835167ffffffffffffffff81111561052b5761052b611e52565b604051908082528060200260200182016040528015610554578160200160208202803683370190505b50905060005b84518110156105cc5761059f85828151811061057857610578611e3c565b602002602001015185838151811061059257610592611e3c565b60200260200101516102ce565b8282815181106105b1576105b1611e3c565b60209081029190910101526105c581611e0b565b905061055a565b509392505050565b6000828152600560205260409020546106215760405162461bcd60e51b815260206004820152600f60248201526e6e6f7420666f756e6420707269636560881b6044820152606401610335565b6000811161065d5760405162461bcd60e51b8152602060048201526009602482015268373ab69032b93937b960b91b6044820152606401610335565b610668338383610b07565b60008281526005602052604090205461069b903390610688908490611d58565b6004546001600160a01b03169190610c88565b5050565b6106a76108bd565b6106b16000610cf0565b565b6106bb6108bd565b6000828152600560205260409020541561070b5760405162461bcd60e51b81526020600482015260116024820152703ab83230ba3290383934b1b29032b937b960791b6044820152606401610335565b60009182526005602052604090912055565b61069b338383610d42565b6000828152600560205260409020546107755760405162461bcd60e51b815260206004820152600f60248201526e6e6f7420666f756e6420707269636560881b6044820152606401610335565b600081116107b15760405162461bcd60e51b8152602060048201526009602482015268373ab69032b93937b960b91b6044820152606401610335565b6000828152600560205260409020546107e790339030906107d3908590611d58565b6004546001600160a01b0316929190610e23565b61069b33838360405180602001604052806000815250610e61565b6001600160a01b03851633148061081e575061081e853361027a565b61083a5760405162461bcd60e51b815260040161033590611bf6565b6104a38585858585610f6c565b61084f6108bd565b6001600160a01b0381166108b45760405162461bcd60e51b815260206004820152602660248201527f4f776e61626c653a206e6577206f776e657220697320746865207a65726f206160448201526564647265737360d01b6064820152608401610335565b6103c781610cf0565b6003546001600160a01b031633146106b15760405162461bcd60e51b815260206004820181905260248201527f4f776e61626c653a2063616c6c6572206973206e6f7420746865206f776e65726044820152606401610335565b805161069b90600290602084019061156b565b815183511461098c5760405162461bcd60e51b815260206004820152602860248201527f455243313135353a2069647320616e6420616d6f756e7473206c656e677468206044820152670dad2e6dac2e8c6d60c31b6064820152608401610335565b6001600160a01b0384166109b25760405162461bcd60e51b815260040161033590611c8d565b3360005b8451811015610a995760008582815181106109d3576109d3611e3c565b6020026020010151905060008583815181106109f1576109f1611e3c565b602090810291909101810151600084815280835260408082206001600160a01b038e168352909352919091205490915081811015610a415760405162461bcd60e51b815260040161033590611cd2565b6000838152602081815260408083206001600160a01b038e8116855292528083208585039055908b16825281208054849290610a7e908490611d40565b9250508190555050505080610a9290611e0b565b90506109b6565b50846001600160a01b0316866001600160a01b0316826001600160a01b03167f4a39dc06d4c0dbc64b70af90fd698a233a518aa5d07e595d983b8c0526c8f7fb8787604051610ae9929190611bb5565b60405180910390a4610aff818787878787611096565b505050505050565b6001600160a01b038316610b695760405162461bcd60e51b815260206004820152602360248201527f455243313135353a206275726e2066726f6d20746865207a65726f206164647260448201526265737360e81b6064820152608401610335565b336000610b7584611201565b90506000610b8284611201565b60408051602080820183526000918290528882528181528282206001600160a01b038b1683529052205490915084811015610c0b5760405162461bcd60e51b8152602060048201526024808201527f455243313135353a206275726e20616d6f756e7420657863656564732062616c604482015263616e636560e01b6064820152608401610335565b6000868152602081815260408083206001600160a01b038b81168086529184528285208a8703905582518b81529384018a90529092908816917fc3d58168c5ae7397731d063d5bbf3d657854427343f4c083240f7aacaa2d0f62910160405180910390a46040805160208101909152600090525b50505050505050565b6040516001600160a01b038316602482015260448101829052610ceb90849063a9059cbb60e01b906064015b60408051601f198184030181529190526020810180516001600160e01b03166001600160e01b03199093169290921790915261124c565b505050565b600380546001600160a01b038381166001600160a01b0319831681179093556040519116919082907f8be0079c531659141344cd1fd0a4f28419497f9722a3daafe3b4186f6b6457e090600090a35050565b816001600160a01b0316836001600160a01b03161415610db65760405162461bcd60e51b815260206004820152602960248201527f455243313135353a2073657474696e6720617070726f76616c20737461747573604482015268103337b91039b2b63360b91b6064820152608401610335565b6001600160a01b03838116600081815260016020908152604080832094871680845294825291829020805460ff191686151590811790915591519182527f17307eab39ab6107e8899845ad3d59bd9653f200f220920489ca2b5937696c31910160405180910390a3505050565b6040516001600160a01b0380851660248301528316604482015260648101829052610e5b9085906323b872dd60e01b90608401610cb4565b50505050565b6001600160a01b038416610ec15760405162461bcd60e51b815260206004820152602160248201527f455243313135353a206d696e7420746f20746865207a65726f206164647265736044820152607360f81b6064820152608401610335565b336000610ecd85611201565b90506000610eda85611201565b90506000868152602081815260408083206001600160a01b038b16845290915281208054879290610f0c908490611d40565b909155505060408051878152602081018790526001600160a01b03808a1692600092918716917fc3d58168c5ae7397731d063d5bbf3d657854427343f4c083240f7aacaa2d0f62910160405180910390a4610c7f8360008989898961131e565b6001600160a01b038416610f925760405162461bcd60e51b815260040161033590611c8d565b336000610f9e85611201565b90506000610fab85611201565b90506000868152602081815260408083206001600160a01b038c16845290915290205485811015610fee5760405162461bcd60e51b815260040161033590611cd2565b6000878152602081815260408083206001600160a01b038d8116855292528083208985039055908a1682528120805488929061102b908490611d40565b909155505060408051888152602081018890526001600160a01b03808b16928c821692918816917fc3d58168c5ae7397731d063d5bbf3d657854427343f4c083240f7aacaa2d0f62910160405180910390a461108b848a8a8a8a8a61131e565b505050505050505050565b6001600160a01b0384163b15610aff5760405163bc197c8160e01b81526001600160a01b0385169063bc197c81906110da9089908990889088908890600401611b0a565b602060405180830381600087803b1580156110f457600080fd5b505af1925050508015611124575060408051601f3d908101601f19168201909252611121918101906119de565b60015b6111d157611130611e68565b806308c379a0141561116a5750611145611e84565b80611150575061116c565b8060405162461bcd60e51b81526004016103359190611be3565b505b60405162461bcd60e51b815260206004820152603460248201527f455243313135353a207472616e7366657220746f206e6f6e20455243313135356044820152732932b1b2b4bb32b91034b6b83632b6b2b73a32b960611b6064820152608401610335565b6001600160e01b0319811663bc197c8160e01b14610c7f5760405162461bcd60e51b815260040161033590611c45565b6040805160018082528183019092526060916000919060208083019080368337019050509050828160008151811061123b5761123b611e3c565b602090810291909101015292915050565b60006112a1826040518060400160405280602081526020017f5361666545524332303a206c6f772d6c6576656c2063616c6c206661696c6564815250856001600160a01b03166113e89092919063ffffffff16565b805190915015610ceb57808060200190518101906112bf91906119a4565b610ceb5760405162461bcd60e51b815260206004820152602a60248201527f5361666545524332303a204552433230206f7065726174696f6e20646964206e6044820152691bdd081cdd58d8d9595960b21b6064820152608401610335565b6001600160a01b0384163b15610aff5760405163f23a6e6160e01b81526001600160a01b0385169063f23a6e61906113629089908990889088908890600401611b68565b602060405180830381600087803b15801561137c57600080fd5b505af19250505080156113ac575060408051601f3d908101601f191682019092526113a9918101906119de565b60015b6113b857611130611e68565b6001600160e01b0319811663f23a6e6160e01b14610c7f5760405162461bcd60e51b815260040161033590611c45565b60606113f78484600085611401565b90505b9392505050565b6060824710156114625760405162461bcd60e51b815260206004820152602660248201527f416464726573733a20696e73756666696369656e742062616c616e636520666f6044820152651c8818d85b1b60d21b6064820152608401610335565b6001600160a01b0385163b6114b95760405162461bcd60e51b815260206004820152601d60248201527f416464726573733a2063616c6c20746f206e6f6e2d636f6e74726163740000006044820152606401610335565b600080866001600160a01b031685876040516114d59190611aee565b60006040518083038185875af1925050503d8060008114611512576040519150601f19603f3d011682016040523d82523d6000602084013e611517565b606091505b5091509150611527828286611532565b979650505050505050565b606083156115415750816113fa565b8251156115515782518084602001fd5b8160405162461bcd60e51b81526004016103359190611be3565b82805461157790611da3565b90600052602060002090601f01602090048101928261159957600085556115df565b82601f106115b257805160ff19168380011785556115df565b828001600101855582156115df579182015b828111156115df5782518255916020019190600101906115c4565b506115eb9291506115ef565b5090565b5b808211156115eb57600081556001016115f0565b600067ffffffffffffffff83111561161e5761161e611e52565b604051611635601f8501601f191660200182611dde565b80915083815284848401111561164a57600080fd5b83836020830137600060208583010152509392505050565b80356001600160a01b038116811461167957600080fd5b919050565b600082601f83011261168f57600080fd5b8135602061169c82611d1c565b6040516116a98282611dde565b8381528281019150858301600585901b870184018810156116c957600080fd5b60005b858110156116e8578135845292840192908401906001016116cc565b5090979650505050505050565b600082601f83011261170657600080fd5b6113fa83833560208501611604565b60006020828403121561172757600080fd5b6113fa82611662565b6000806040838503121561174357600080fd5b61174c83611662565b915061175a60208401611662565b90509250929050565b600080600080600060a0868803121561177b57600080fd5b61178486611662565b945061179260208701611662565b9350604086013567ffffffffffffffff808211156117af57600080fd5b6117bb89838a0161167e565b945060608801359150808211156117d157600080fd5b6117dd89838a0161167e565b935060808801359150808211156117f357600080fd5b50611800888289016116f5565b9150509295509295909350565b600080600080600060a0868803121561182557600080fd5b61182e86611662565b945061183c60208701611662565b93506040860135925060608601359150608086013567ffffffffffffffff81111561186657600080fd5b611800888289016116f5565b6000806040838503121561188557600080fd5b61188e83611662565b9150602083013561189e81611f0e565b809150509250929050565b600080604083850312156118bc57600080fd5b6118c583611662565b946020939093013593505050565b600080604083850312156118e657600080fd5b823567ffffffffffffffff808211156118fe57600080fd5b818501915085601f83011261191257600080fd5b8135602061191f82611d1c565b60405161192c8282611dde565b8381528281019150858301600585901b870184018b101561194c57600080fd5b600096505b848710156119765761196281611662565b835260019690960195918301918301611951565b509650508601359250508082111561198d57600080fd5b5061199a8582860161167e565b9150509250929050565b6000602082840312156119b657600080fd5b81516113fa81611f0e565b6000602082840312156119d357600080fd5b81356113fa81611f1c565b6000602082840312156119f057600080fd5b81516113fa81611f1c565b600060208284031215611a0d57600080fd5b813567ffffffffffffffff811115611a2457600080fd5b8201601f81018413611a3557600080fd5b611a4484823560208401611604565b949350505050565b600060208284031215611a5e57600080fd5b5035919050565b60008060408385031215611a7857600080fd5b50508035926020909101359150565b600081518084526020808501945080840160005b83811015611ab757815187529582019590820190600101611a9b565b509495945050505050565b60008151808452611ada816020860160208601611d77565b601f01601f19169290920160200192915050565b60008251611b00818460208701611d77565b9190910192915050565b6001600160a01b0386811682528516602082015260a060408201819052600090611b3690830186611a87565b8281036060840152611b488186611a87565b90508281036080840152611b5c8185611ac2565b98975050505050505050565b6001600160a01b03868116825285166020820152604081018490526060810183905260a06080820181905260009061152790830184611ac2565b6020815260006113fa6020830184611a87565b604081526000611bc86040830185611a87565b8281036020840152611bda8185611a87565b95945050505050565b6020815260006113fa6020830184611ac2565b6020808252602f908201527f455243313135353a2063616c6c6572206973206e6f7420746f6b656e206f776e60408201526e195c881b9bdc88185c1c1c9bdd9959608a1b606082015260800190565b60208082526028908201527f455243313135353a204552433131353552656365697665722072656a656374656040820152676420746f6b656e7360c01b606082015260800190565b60208082526025908201527f455243313135353a207472616e7366657220746f20746865207a65726f206164604082015264647265737360d81b606082015260800190565b6020808252602a908201527f455243313135353a20696e73756666696369656e742062616c616e636520666f60408201526939103a3930b739b332b960b11b606082015260800190565b600067ffffffffffffffff821115611d3657611d36611e52565b5060051b60200190565b60008219821115611d5357611d53611e26565b500190565b6000816000190483118215151615611d7257611d72611e26565b500290565b60005b83811015611d92578181015183820152602001611d7a565b83811115610e5b5750506000910152565b600181811c90821680611db757607f821691505b60208210811415611dd857634e487b7160e01b600052602260045260246000fd5b50919050565b601f8201601f1916810167ffffffffffffffff81118282101715611e0457611e04611e52565b6040525050565b6000600019821415611e1f57611e1f611e26565b5060010190565b634e487b7160e01b600052601160045260246000fd5b634e487b7160e01b600052603260045260246000fd5b634e487b7160e01b600052604160045260246000fd5b600060033d1115611e815760046000803e5060005160e01c5b90565b600060443d1015611e925790565b6040516003193d81016004833e81513d67ffffffffffffffff8160248401118184111715611ec257505050505090565b8285019150815181811115611eda5750505050505090565b843d8701016020828501011115611ef45750505050505090565b611f0360208286010187611dde565b509095945050505050565b80151581146103c757600080fd5b6001600160e01b0319811681146103c757600080fdfea2646970667358221220e83f219fbfeba6cbb66deb7cddefedd68a6024558f0039aa986307291547dc5864736f6c6343000806003368747470733a2f2f67616d652e6578616d706c652f6170692f6974656d2f7b69647d2e6a736f6e",
  "devdoc": {
    "kind": "dev",
    "methods": {
      "balanceOf(address,uint256)": {
        "details": "See {IERC1155-balanceOf}. Requirements: - `account` cannot be the zero address."
      },
      "balanceOfBatch(address[],uint256[])": {
        "details": "See {IERC1155-balanceOfBatch}. Requirements: - `accounts` and `ids` must have the same length."
      },
      "isApprovedForAll(address,address)": {
        "details": "See {IERC1155-isApprovedForAll}."
      },
      "owner()": {
        "details": "Returns the address of the current owner."
      },
      "renounceOwnership()": {
        "details": "Leaves the contract without owner. It will not be possible to call `onlyOwner` functions anymore. Can only be called by the current owner. NOTE: Renouncing ownership will leave the contract without an owner, thereby removing any functionality that is only available to the owner."
      },
      "safeBatchTransferFrom(address,address,uint256[],uint256[],bytes)": {
        "details": "See {IERC1155-safeBatchTransferFrom}."
      },
      "safeTransferFrom(address,address,uint256,uint256,bytes)": {
        "details": "See {IERC1155-safeTransferFrom}."
      },
      "setApprovalForAll(address,bool)": {
        "details": "See {IERC1155-setApprovalForAll}."
      },
      "supportsInterface(bytes4)": {
        "details": "See {IERC165-supportsInterface}."
      },
      "transferOwnership(address)": {
        "details": "Transfers ownership of the contract to a new account (`newOwner`). Can only be called by the current owner."
      },
      "uri(uint256)": {
        "details": "See {IERC1155MetadataURI-uri}. This implementation returns the same URI for *all* token types. It relies on the token type ID substitution mechanism https://eips.ethereum.org/EIPS/eip-1155#metadata[defined in the EIP]. Clients calling this function must replace the `\\{id\\}` substring with the actual token type ID."
      }
    },
    "version": 1
  },
  "userdoc": {
    "kind": "user",
    "methods": {},
    "version": 1
  },
  "storageLayout": {
    "storage": [
      {
        "astId": 138,
        "contract": "contracts/other/Shop.sol:Shop",
        "label": "_balances",
        "offset": 0,
        "slot": "0",
        "type": "t_mapping(t_uint256,t_mapping(t_address,t_uint256))"
      },
      {
        "astId": 144,
        "contract": "contracts/other/Shop.sol:Shop",
        "label": "_operatorApprovals",
        "offset": 0,
        "slot": "1",
        "type": "t_mapping(t_address,t_mapping(t_address,t_bool))"
      },
      {
        "astId": 146,
        "contract": "contracts/other/Shop.sol:Shop",
        "label": "_uri",
        "offset": 0,
        "slot": "2",
        "type": "t_string_storage"
      },
      {
        "astId": 7,
        "contract": "contracts/other/Shop.sol:Shop",
        "label": "_owner",
        "offset": 0,
        "slot": "3",
        "type": "t_address"
      },
      {
        "astId": 2889,
        "contract": "contracts/other/Shop.sol:Shop",
        "label": "gameToken",
        "offset": 0,
        "slot": "4",
        "type": "t_contract(ERC20)2099"
      },
      {
        "astId": 2893,
        "contract": "contracts/other/Shop.sol:Shop",
        "label": "prices",
        "offset": 0,
        "slot": "5",
        "type": "t_mapping(t_uint256,t_uint256)"
      }
    ],
    "types": {
      "t_address": {
        "encoding": "inplace",
        "label": "address",
        "numberOfBytes": "20"
      },
      "t_bool": {
        "encoding": "inplace",
        "label": "bool",
        "numberOfBytes": "1"
      },
      "t_contract(ERC20)2099": {
        "encoding": "inplace",
        "label": "contract ERC20",
        "numberOfBytes": "20"
      },
      "t_mapping(t_address,t_bool)": {
        "encoding": "mapping",
        "key": "t_address",
        "label": "mapping(address => bool)",
        "numberOfBytes": "32",
        "value": "t_bool"
      },
      "t_mapping(t_address,t_mapping(t_address,t_bool))": {
        "encoding": "mapping",
        "key": "t_address",
        "label": "mapping(address => mapping(address => bool))",
        "numberOfBytes": "32",
        "value": "t_mapping(t_address,t_bool)"
      },
      "t_mapping(t_address,t_uint256)": {
        "encoding": "mapping",
        "key": "t_address",
        "label": "mapping(address => uint256)",
        "numberOfBytes": "32",
        "value": "t_uint256"
      },
      "t_mapping(t_uint256,t_mapping(t_address,t_uint256))": {
        "encoding": "mapping",
        "key": "t_uint256",
        "label": "mapping(uint256 => mapping(address => uint256))",
        "numberOfBytes": "32",
        "value": "t_mapping(t_address,t_uint256)"
      },
      "t_mapping(t_uint256,t_uint256)": {
        "encoding": "mapping",
        "key": "t_uint256",
        "label": "mapping(uint256 => uint256)",
        "numberOfBytes": "32",
        "value": "t_uint256"
      },
      "t_string_storage": {
        "encoding": "bytes",
        "label": "string",
        "numberOfBytes": "32"
      },
      "t_uint256": {
        "encoding": "inplace",
        "label": "uint256",
        "numberOfBytes": "32"
      }
    }
  }
}