{
  "address": "0xe7f1725E7734CE288F8367e1Bb143E90bb3F0512",
  "abi": [
    {
      "inputs": [
        {
          "internalType": "uint64",
          "name": "_subscriptionId",
          "type": "uint64"
        },
        {
          "internalType": "address",
          "name": "_vrfCoordinator",
          "type": "address"
        },
        {
          "internalType": "address",
          "name": "_link",
          "type": "address"
        },
        {
          "internalType": "bytes32",
          "name": "_keyHash",
          "type": "bytes32"
        },
        {
          "internalType": "address",
          "name": "_executor",
          "type": "address"
        }
      ],
      "stateMutability": "nonpayable",
      "type": "constructor"
    },
    {
      "inputs": [
        {
          "internalType": "address",
          "name": "have",
          "type": "address"
        },
        {
          "internalType": "address",
          "name": "want",
          "type": "address"
        }
      ],
      "name": "OnlyCoordinatorCanFulfill",
      "type": "error"
    },
    {
      "anonymous": false,
      "inputs": [
        {
          "indexed": true,
          "internalType": "address",
          "name": "previousOwner",
          "type": "address"
        },
        {
          "indexed": true,
          "internalType": "address",
          "name": "newOwner",
          "type": "address"
        }
      ],
      "name": "OwnershipTransferred",
      "type": "event"
    },
    {
      "anonymous": false,
      "inputs": [
        {
          "indexed": false,
          "internalType": "uint256",
          "name": "taskId",
          "type": "uint256"
        },
        {
          "indexed": false,
          "internalType": "uint256",
          "name": "max",
          "type": "uint256"
        },
        {
          "indexed": false,
          "internalType": "uint256",
          "name": "requestId",
          "type": "uint256"
        }
      ],
      "name": "ReqRandomNumber",
      "type": "event"
    },
    {
      "anonymous": false,
      "inputs": [
        {
          "indexed": false,
          "internalType": "uint256",
          "name": "taskId",
          "type": "uint256"
        },
        {
          "indexed": false,
          "internalType": "uint256",
          "name": "requestId",
          "type": "uint256"
        },
        {
          "indexed": false,
          "internalType": "uint256",
          "name": "randomness",
          "type": "uint256"
        },
        {
          "indexed": false,
          "internalType": "uint32",
          "name": "number",
          "type": "uint32"
        }
      ],
      "name": "RspRandomNumber",
      "type": "event"
    },
    {
      "inputs": [],
      "name": "EXECUTOR",
      "outputs": [
        {
          "internalType": "address",
          "name": "",
          "type": "address"
        }
      ],
      "stateMutability": "view",
      "type": "function"
    },
    {
      "inputs": [],
      "name": "callbackGasLimit",
      "outputs": [
        {
          "internalType": "uint32",
          "name": "",
          "type": "uint32"
        }
      ],
      "stateMutability": "view",
      "type": "function"
    },
    {
      "inputs": [
        {
          "internalType": "uint256",
          "name": "taskId",
          "type": "uint256"
        },
        {
          "internalType": "uint256",
          "name": "seed",
          "type": "uint256"
        }
      ],
      "name": "callbackRandomWords",
      "outputs": [],
      "stateMutability": "nonpayable",
      "type": "function"
    },
    {
      "inputs": [],
      "name": "keyHash",
      "outputs": [
        {
          "internalType": "bytes32",
          "name": "",
          "type": "bytes32"
        }
      ],
      "stateMutability": "view",
      "type": "function"
    },
    {
      "inputs": [],
      "name": "link",
      "outputs": [
        {
          "internalType": "address",
          "name": "",
          "type": "address"
        }
      ],
      "stateMutability": "view",
      "type": "function"
    },
    {
      "inputs": [],
      "name": "owner",
      "outputs": [
        {
          "internalType": "address",
          "name": "",
          "type": "address"
        }
      ],
      "stateMutability": "view",
      "type": "function"
    },
    {
      "inputs": [
        {
          "internalType": "uint256",
          "name": "",
          "type": "uint256"
        }
      ],
      "name": "randomResults",
      "outputs": [
        {
          "internalType": "uint32",
          "name": "",
          "type": "uint32"
        }
      ],
      "stateMutability": "view",
      "type": "function"
    },
    {
      "inputs": [
        {
          "internalType": "uint256",
          "name": "requestId",
          "type": "uint256"
        },
        {
          "internalType": "uint256[]",
          "name": "randomWords",
          "type": "uint256[]"
        }
      ],
      "name": "rawFulfillRandomWords",
      "outputs": [],
      "stateMutability": "nonpayable",
      "type": "function"
    },
    {
      "inputs": [],
      "name": "renounceOwnership",
      "outputs": [],
      "stateMutability": "nonpayable",
      "type": "function"
    },
    {
      "inputs": [
        {
          "internalType": "uint256",
          "name": "taskId",
          "type": "uint256"
        },
        {
          "internalType": "uint256",
          "name": "max",
          "type": "uint256"
        }
      ],
      "name": "reqRandomNumber",
      "outputs": [],
      "stateMutability": "nonpayable",
      "type": "function"
    },
    {
      "inputs": [
        {
          "internalType": "uint256",
          "name": "",
          "type": "uint256"
        }
      ],
      "name": "requestToMaxNum",
      "outputs": [
        {
          "internalType": "uint256",
          "name": "",
          "type": "uint256"
        }
      ],
      "stateMutability": "view",
      "type": "function"
    },
    {
      "inputs": [
        {
          "internalType": "uint256",
          "name": "",
          "type": "uint256"
        }
      ],
      "name": "requestToTaskId",
      "outputs": [
        {
          "internalType": "uint256",
          "name": "",
          "type": "uint256"
        }
      ],
      "stateMutability": "view",
      "type": "function"
    },
    {
      "inputs": [
        {
          "internalType": "address",
          "name": "_executor",
          "type": "address"
        }
      ],
      "name": "setExecutor",
      "outputs": [],
      "stateMutability": "nonpayable",
      "type": "function"
    },
    {
      "inputs": [
        {
          "internalType": "bytes32",
          "name": "_keyHash",
          "type": "bytes32"
        }
      ],
      "name": "setKeyHash",
      "outputs": [],
      "stateMutability": "nonpayable",
      "type": "function"
    },
    {
      "inputs": [
        {
          "internalType": "uint16",
          "name": "num",
          "type": "uint16"
        }
      ],
      "name": "setReqConfirmations",
      "outputs": [],
      "stateMutability": "nonpayable",
      "type": "function"
    },
    {
      "inputs": [
        {
          "internalType": "uint256",
          "name": "",
          "type": "uint256"
        }
      ],
      "name": "taskToRequestId",
      "outputs": [
        {
          "internalType": "uint256",
          "name": "",
          "type": "uint256"
        }
      ],
      "stateMutability": "view",
      "type": "function"
    },
    {
      "inputs": [
        {
          "internalType": "address",
          "name": "newOwner",
          "type": "address"
        }
      ],
      "name": "transferOwnership",
      "outputs": [],
      "stateMutability": "nonpayable",
      "type": "function"
    },
    {
      "inputs": [
        {
          "internalType": "uint256",
          "name": "taskId",
          "type": "uint256"
        }
      ],
      "name": "viewRandomResult",
      "outputs": [
        {
          "internalType": "uint32",
          "name": "",
          "type": "uint32"
        }
      ],
      "stateMutability": "view",
      "type": "function"
    },
    {
      "inputs": [],
      "name": "vrfCoordinator",
      "outputs": [
        {
          "internalType": "address",
          "name": "",
          "type": "address"
        }
      ],
      "stateMutability": "view",
      "type": "function"
    }
  ],
  "transactionHash": "0x6fd1c6fe0ec46e69b0d21cb442446d3659f4b99913aa27bfe0708a0a46ba13a8",
  "args": [
    1914,
    "0x6A2AAd07396B36Fe02a22b33cf443582f682c82f",
    "0x84b9B910527Ad5C03A9Ca831909E21e236EA7b06",
    "0xd4bb89654db74673a187bd804519e65e3f71a52bc55f11da7601a13dcf505314",
    "0x893BAB56Cb5f4E319f402A5d0100566A363C9300"
  ],
  "numDeployments": 1,
  "solcInputHash": "8f5cdadc06674ad86189e872bbe06f3f",
  "bytecode": "0x60a06040526006805465ffffffffffff19166403000186a017905534801561002657600080fd5b50604051610e50380380610e50833981016040819052610045916101c1565b606084901b6001600160601b03191660805261006033610155565b6000856001600160401b0316116100bd5760405162461bcd60e51b815260206004820152601660248201527f496e76616c696420737562736372697074696f6e496400000000000000000000604482015260640160405180910390fd5b60028054600380546001600160a01b039788166001600160a01b03199182168117909255600480549789169782168817905560059590955560018054861690911790556001600160401b03909616600160a01b02929092166001600160e01b03199095169490941790911790556006805492909116660100000000000002600160301b600160d01b031990921691909117905561022d565b600080546001600160a01b038381166001600160a01b0319831681178455604051919092169283917f8be0079c531659141344cd1fd0a4f28419497f9722a3daafe3b4186f6b6457e09190a35050565b80516001600160a01b03811681146101bc57600080fd5b919050565b600080600080600060a086880312156101d957600080fd5b85516001600160401b03811681146101f057600080fd5b94506101fe602087016101a5565b935061020c604087016101a5565b925060608601519150610221608087016101a5565b90509295509295909350565b60805160601c610bfe6102526000396000818161067701526106b90152610bfe6000f3fe608060405234801561001057600080fd5b50600436106101215760003560e01c806351312afe116100ad5780639854471011610071578063985447101461029f578063a3e56fa8146102b2578063bcadffd0146102c5578063f2fde38b146102d8578063f9a5d00d146102eb57600080fd5b806351312afe1461024357806361728f3914610263578063630dc7cb1461026c578063715018a6146102865780638da5cb5b1461028e57600080fd5b80631fe543e3116100f45780631fe543e314610191578063219be114146101a457806324f74697146101df5780632fa2cb4e146101ef578063463fb8c61461021d57600080fd5b806319c01989146101265780631bc5f5071461013b5780631c3c0ea81461014e5780631c4695f414610161575b600080fd5b610139610134366004610af4565b61030b565b005b610139610149366004610af4565b610507565b61013961015c36600461099d565b610635565b600454610174906001600160a01b031681565b6040516001600160a01b0390911681526020015b60405180910390f35b61013961019f366004610a23565b61066c565b6101ca6101b23660046109cd565b60076020526000908152604090205463ffffffff1681565b60405163ffffffff9091168152602001610188565b6006546101ca9063ffffffff1681565b61020f6101fd3660046109cd565b600a6020526000908152604090205481565b604051908152602001610188565b6101ca61022b3660046109cd565b60009081526007602052604090205463ffffffff1690565b61020f6102513660046109cd565b60086020526000908152604090205481565b61020f60055481565b60065461017490600160301b90046001600160a01b031681565b6101396106f4565b6000546001600160a01b0316610174565b6101396102ad3660046109cd565b610708565b600354610174906001600160a01b031681565b6101396102d33660046109e6565b610715565b6101396102e636600461099d565b610741565b61020f6102f93660046109cd565b60096020526000908152604090205481565b600654600160301b90046001600160a01b031633146103715760405162461bcd60e51b815260206004820152601e60248201527f4f6e6c79204c75636b732063616e2072657152616e646f6d4e756d626572000060448201526064015b60405180910390fd5b600081116103b55760405162461bcd60e51b8152602060048201526011602482015270125b9d985b1a59081b585e081a5b9c1d5d607a1b6044820152606401610368565b6000828152600a6020526040902054156103cd575050565b600180546005546002546006546040516305d3b1d360e41b81526004810193909352600160a01b90910467ffffffffffffffff166024830152640100000000810461ffff16604483015263ffffffff16606482015260848101929092526000916001600160a01b0390911690635d3b1d309060a401602060405180830381600087803b15801561045c57600080fd5b505af1158015610470573d6000803e3d6000fd5b505050506040513d601f19601f820116820180604052508101906104949190610a0a565b600081815260086020908152604080832087905560098252808320869055868352600a82529182902083905581518681529081018590529081018290529091507f3f13685560bd8b2517f69ad10b1e2367cc13dc8df09b982ad90e1119c6337c9f906060015b60405180910390a1505050565b61050f6107ba565b6000828152600a602052604081205460065490919061053a90640100000000900461ffff1643610b4d565b4043446105474287610b2e565b6105519190610b2e565b61055b9190610b2e565b6105659190610b2e565b60405160200161057791815260200190565b60408051601f198184030181529181528151602092830120600085815260099093529120549091506105a99082610b64565b6105b4906001610b16565b6000858152600760208181526040808420805463ffffffff191663ffffffff96909616958617905560088252928390205491815282518881529081019190915290810183905260608101919091527f80bb76aef7e4ff2d1394b73868c9a3d09c1dddeff2c0c0c1d2567da7f4cd787e9060800160405180910390a150505050565b61063d6107ba565b600680546001600160a01b03909216600160301b026601000000000000600160d01b0319909216919091179055565b336001600160a01b037f000000000000000000000000000000000000000000000000000000000000000016146106e65760405163073e64fd60e21b81523360048201526001600160a01b037f0000000000000000000000000000000000000000000000000000000000000000166024820152604401610368565b6106f08282610814565b5050565b6106fc6107ba565b610706600061094d565b565b6107106107ba565b600555565b61071d6107ba565b6006805461ffff9092166401000000000265ffff0000000019909216919091179055565b6107496107ba565b6001600160a01b0381166107ae5760405162461bcd60e51b815260206004820152602660248201527f4f776e61626c653a206e6577206f776e657220697320746865207a65726f206160448201526564647265737360d01b6064820152608401610368565b6107b78161094d565b50565b6000546001600160a01b031633146107065760405162461bcd60e51b815260206004820181905260248201527f4f776e61626c653a2063616c6c6572206973206e6f7420746865206f776e65726044820152606401610368565b600082815260086020526040902054806108705760405162461bcd60e51b815260206004820152601960248201527f57726f6e67207461736b4964206f7220726571756573744964000000000000006044820152606401610368565b60008381526009602052604081205483519091849161089157610891610b9c565b60200260200101516108a39190610b64565b6108ae906001610b16565b6000828152600760205260408120805463ffffffff191663ffffffff939093169290921790915582517f80bb76aef7e4ff2d1394b73868c9a3d09c1dddeff2c0c0c1d2567da7f4cd787e9183918691869161090b5761090b610b9c565b602090810291909101810151600086815260078352604090819020548151958652928501939093529183019190915263ffffffff1660608201526080016104fa565b600080546001600160a01b038381166001600160a01b0319831681178455604051919092169283917f8be0079c531659141344cd1fd0a4f28419497f9722a3daafe3b4186f6b6457e09190a35050565b6000602082840312156109af57600080fd5b81356001600160a01b03811681146109c657600080fd5b9392505050565b6000602082840312156109df57600080fd5b5035919050565b6000602082840312156109f857600080fd5b813561ffff811681146109c657600080fd5b600060208284031215610a1c57600080fd5b5051919050565b60008060408385031215610a3657600080fd5b8235915060208084013567ffffffffffffffff80821115610a5657600080fd5b818601915086601f830112610a6a57600080fd5b813581811115610a7c57610a7c610bb2565b8060051b604051601f19603f83011681018181108582111715610aa157610aa1610bb2565b604052828152858101935084860182860187018b1015610ac057600080fd5b600095505b83861015610ae3578035855260019590950194938601938601610ac5565b508096505050505050509250929050565b60008060408385031215610b0757600080fd5b50508035926020909101359150565b60008219821115610b2957610b29610b86565b500190565b6000816000190483118215151615610b4857610b48610b86565b500290565b600082821015610b5f57610b5f610b86565b500390565b600082610b8157634e487b7160e01b600052601260045260246000fd5b500690565b634e487b7160e01b600052601160045260246000fd5b634e487b7160e01b600052603260045260246000fd5b634e487b7160e01b600052604160045260246000fdfea2646970667358221220901620089b8b41f62c0227e585aa577ca924fa9ab8786462943867d52546f46c64736f6c63430008060033",
  "devdoc": {
    "kind": "dev",
    "methods": {
      "owner()": {
        "details": "Returns the address of the current owner."
      },
      "renounceOwnership()": {
        "details": "Leaves the contract without owner. It will not be possible to call `onlyOwner` functions anymore. Can only be called by the current owner. NOTE: Renouncing ownership will leave the contract without an owner, thereby removing any functionality that is only available to the owner."
      },
      "reqRandomNumber(uint256,uint256)": {
        "params": {
          "max": ": max provided by the LucksExecutor (lastTicketId)"
        }
      },
      "setExecutor(address)": {
        "params": {
          "_executor": ": address of the PancakeSwap crowdluck"
        }
      },
      "setKeyHash(bytes32)": {
        "params": {
          "_keyHash": ": new keyHash"
        }
      },
      "setReqConfirmations(uint16)": {
        "params": {
          "num": ": num"
        }
      },
      "transferOwnership(address)": {
        "details": "Transfers ownership of the contract to a new account (`newOwner`). Can only be called by the current owner."
      }
    },
    "title": "Openluck VRF",
    "version": 1
  },
  "userdoc": {
    "kind": "user",
    "methods": {
      "callbackRandomWords(uint256,uint256)": {
        "notice": "Callback for enmergency case"
      },
      "reqRandomNumber(uint256,uint256)": {
        "notice": "Request randomness from a user-provided max"
      },
      "setExecutor(address)": {
        "notice": "Set the address for the Lucks"
      },
      "setKeyHash(bytes32)": {
        "notice": "Change the keyHash"
      },
      "setReqConfirmations(uint16)": {
        "notice": "Change the requestConfirmations"
      },
      "viewRandomResult(uint256)": {
        "notice": "View random result"
      }
    },
    "notice": "It is the contract for Randomness Number Generation",
    "version": 1
  },
  "storageLayout": {
    "storage": [
      {
        "astId": 941,
        "contract": "contracts/other/VRF.sol:VRF",
        "label": "_owner",
        "offset": 0,
        "slot": "0",
        "type": "t_address"
      },
      {
        "astId": 13474,
        "contract": "contracts/other/VRF.sol:VRF",
        "label": "COORDINATOR",
        "offset": 0,
        "slot": "1",
        "type": "t_contract(VRFCoordinatorV2Interface)306"
      },
      {
        "astId": 13477,
        "contract": "contracts/other/VRF.sol:VRF",
        "label": "LINKTOKEN",
        "offset": 0,
        "slot": "2",
        "type": "t_contract(LinkTokenInterface)210"
      },
      {
        "astId": 13479,
        "contract": "contracts/other/VRF.sol:VRF",
        "label": "s_subscriptionId",
        "offset": 20,
        "slot": "2",
        "type": "t_uint64"
      },
      {
        "astId": 13481,
        "contract": "contracts/other/VRF.sol:VRF",
        "label": "vrfCoordinator",
        "offset": 0,
        "slot": "3",
        "type": "t_address"
      },
      {
        "astId": 13483,
        "contract": "contracts/other/VRF.sol:VRF",
        "label": "link",
        "offset": 0,
        "slot": "4",
        "type": "t_address"
      },
      {
        "astId": 13485,
        "contract": "contracts/other/VRF.sol:VRF",
        "label": "keyHash",
        "offset": 0,
        "slot": "5",
        "type": "t_bytes32"
      },
      {
        "astId": 13488,
        "contract": "contracts/other/VRF.sol:VRF",
        "label": "callbackGasLimit",
        "offset": 0,
        "slot": "6",
        "type": "t_uint32"
      },
      {
        "astId": 13491,
        "contract": "contracts/other/VRF.sol:VRF",
        "label": "requestConfirmations",
        "offset": 4,
        "slot": "6",
        "type": "t_uint16"
      },
      {
        "astId": 13493,
        "contract": "contracts/other/VRF.sol:VRF",
        "label": "EXECUTOR",
        "offset": 6,
        "slot": "6",
        "type": "t_address"
      },
      {
        "astId": 13497,
        "contract": "contracts/other/VRF.sol:VRF",
        "label": "randomResults",
        "offset": 0,
        "slot": "7",
        "type": "t_mapping(t_uint256,t_uint32)"
      },
      {
        "astId": 13501,
        "contract": "contracts/other/VRF.sol:VRF",
        "label": "requestToTaskId",
        "offset": 0,
        "slot": "8",
        "type": "t_mapping(t_uint256,t_uint256)"
      },
      {
        "astId": 13505,
        "contract": "contracts/other/VRF.sol:VRF",
        "label": "requestToMaxNum",
        "offset": 0,
        "slot": "9",
        "type": "t_mapping(t_uint256,t_uint256)"
      },
      {
        "astId": 13509,
        "contract": "contracts/other/VRF.sol:VRF",
        "label": "taskToRequestId",
        "offset": 0,
        "slot": "10",
        "type": "t_mapping(t_uint256,t_uint256)"
      }
    ],
    "types": {
      "t_address": {
        "encoding": "inplace",
        "label": "address",
        "numberOfBytes": "20"
      },
      "t_bytes32": {
        "encoding": "inplace",
        "label": "bytes32",
        "numberOfBytes": "32"
      },
      "t_contract(LinkTokenInterface)210": {
        "encoding": "inplace",
        "label": "contract LinkTokenInterface",
        "numberOfBytes": "20"
      },
      "t_contract(VRFCoordinatorV2Interface)306": {
        "encoding": "inplace",
        "label": "contract VRFCoordinatorV2Interface",
        "numberOfBytes": "20"
      },
      "t_mapping(t_uint256,t_uint256)": {
        "encoding": "mapping",
        "key": "t_uint256",
        "label": "mapping(uint256 => uint256)",
        "numberOfBytes": "32",
        "value": "t_uint256"
      },
      "t_mapping(t_uint256,t_uint32)": {
        "encoding": "mapping",
        "key": "t_uint256",
        "label": "mapping(uint256 => uint32)",
        "numberOfBytes": "32",
        "value": "t_uint32"
      },
      "t_uint16": {
        "encoding": "inplace",
        "label": "uint16",
        "numberOfBytes": "2"
      },
      "t_uint256": {
        "encoding": "inplace",
        "label": "uint256",
        "numberOfBytes": "32"
      },
      "t_uint32": {
        "encoding": "inplace",
        "label": "uint32",
        "numberOfBytes": "4"
      },
      "t_uint64": {
        "encoding": "inplace",
        "label": "uint64",
        "numberOfBytes": "8"
      }
    }
  }
}