{
  "address": "0x8C89b1F356F966c9B5E17415fA43D0fb560b29b3",
  "abi": [
    {
      "inputs": [
        {
          "internalType": "address",
          "name": "_keeperRegAddr",
          "type": "address"
        },
        {
          "internalType": "contract IExecutor",
          "name": "_executor",
          "type": "address"
        }
      ],
      "stateMutability": "nonpayable",
      "type": "constructor"
    },
    {
      "anonymous": false,
      "inputs": [
        {
          "indexed": false,
          "internalType": "uint256",
          "name": "amountAdded",
          "type": "uint256"
        },
        {
          "indexed": false,
          "internalType": "uint256",
          "name": "newBalance",
          "type": "uint256"
        },
        {
          "indexed": false,
          "internalType": "address",
          "name": "sender",
          "type": "address"
        }
      ],
      "name": "FundsAdded",
      "type": "event"
    },
    {
      "anonymous": false,
      "inputs": [
        {
          "indexed": false,
          "internalType": "uint256",
          "name": "amountWithdrawn",
          "type": "uint256"
        },
        {
          "indexed": false,
          "internalType": "address",
          "name": "payee",
          "type": "address"
        }
      ],
      "name": "FundsWithdrawn",
      "type": "event"
    },
    {
      "anonymous": false,
      "inputs": [
        {
          "indexed": false,
          "internalType": "address",
          "name": "oldAddress",
          "type": "address"
        },
        {
          "indexed": false,
          "internalType": "address",
          "name": "newAddress",
          "type": "address"
        }
      ],
      "name": "KeeperRegistryAddressUpdated",
      "type": "event"
    },
    {
      "anonymous": false,
      "inputs": [
        {
          "indexed": true,
          "internalType": "address",
          "name": "previousOwner",
          "type": "address"
        },
        {
          "indexed": true,
          "internalType": "address",
          "name": "newOwner",
          "type": "address"
        }
      ],
      "name": "OwnershipTransferred",
      "type": "event"
    },
    {
      "anonymous": false,
      "inputs": [
        {
          "indexed": false,
          "internalType": "address",
          "name": "account",
          "type": "address"
        }
      ],
      "name": "Paused",
      "type": "event"
    },
    {
      "anonymous": false,
      "inputs": [
        {
          "indexed": false,
          "internalType": "uint256",
          "name": "taskId",
          "type": "uint256"
        },
        {
          "indexed": false,
          "internalType": "string",
          "name": "reason",
          "type": "string"
        }
      ],
      "name": "RevertInvoke",
      "type": "event"
    },
    {
      "anonymous": false,
      "inputs": [
        {
          "indexed": false,
          "internalType": "address",
          "name": "account",
          "type": "address"
        }
      ],
      "name": "Unpaused",
      "type": "event"
    },
    {
      "inputs": [],
      "name": "BATCH_PERFORM_LIMIT",
      "outputs": [
        {
          "internalType": "uint256",
          "name": "",
          "type": "uint256"
        }
      ],
      "stateMutability": "view",
      "type": "function"
    },
    {
      "inputs": [],
      "name": "DST_GAS_AMOUNT",
      "outputs": [
        {
          "internalType": "uint256",
          "name": "",
          "type": "uint256"
        }
      ],
      "stateMutability": "view",
      "type": "function"
    },
    {
      "inputs": [],
      "name": "EXECUTOR",
      "outputs": [
        {
          "internalType": "contract IExecutor",
          "name": "",
          "type": "address"
        }
      ],
      "stateMutability": "view",
      "type": "function"
    },
    {
      "inputs": [],
      "name": "KEEPER",
      "outputs": [
        {
          "internalType": "address",
          "name": "",
          "type": "address"
        }
      ],
      "stateMutability": "view",
      "type": "function"
    },
    {
      "inputs": [
        {
          "internalType": "uint256",
          "name": "taskId",
          "type": "uint256"
        },
        {
          "internalType": "uint256",
          "name": "endTime",
          "type": "uint256"
        }
      ],
      "name": "addTask",
      "outputs": [],
      "stateMutability": "nonpayable",
      "type": "function"
    },
    {
      "inputs": [
        {
          "internalType": "uint256[]",
          "name": "taskIds",
          "type": "uint256[]"
        },
        {
          "internalType": "uint256[]",
          "name": "endTimes",
          "type": "uint256[]"
        }
      ],
      "name": "addTasks",
      "outputs": [],
      "stateMutability": "nonpayable",
      "type": "function"
    },
    {
      "inputs": [
        {
          "internalType": "bytes",
          "name": "",
          "type": "bytes"
        }
      ],
      "name": "checkUpkeep",
      "outputs": [
        {
          "internalType": "bool",
          "name": "upkeepNeeded",
          "type": "bool"
        },
        {
          "internalType": "bytes",
          "name": "performData",
          "type": "bytes"
        }
      ],
      "stateMutability": "view",
      "type": "function"
    },
    {
      "inputs": [],
      "name": "first",
      "outputs": [
        {
          "internalType": "uint256",
          "name": "",
          "type": "uint256"
        }
      ],
      "stateMutability": "view",
      "type": "function"
    },
    {
      "inputs": [
        {
          "internalType": "uint256",
          "name": "taskId",
          "type": "uint256"
        }
      ],
      "name": "get",
      "outputs": [
        {
          "internalType": "uint256",
          "name": "",
          "type": "uint256"
        }
      ],
      "stateMutability": "view",
      "type": "function"
    },
    {
      "inputs": [],
      "name": "getQueueTasks",
      "outputs": [
        {
          "internalType": "uint256[]",
          "name": "",
          "type": "uint256[]"
        }
      ],
      "stateMutability": "view",
      "type": "function"
    },
    {
      "inputs": [],
      "name": "last",
      "outputs": [
        {
          "internalType": "uint256",
          "name": "",
          "type": "uint256"
        }
      ],
      "stateMutability": "view",
      "type": "function"
    },
    {
      "inputs": [
        {
          "internalType": "uint256",
          "name": "taskId",
          "type": "uint256"
        }
      ],
      "name": "next",
      "outputs": [
        {
          "internalType": "uint256",
          "name": "",
          "type": "uint256"
        }
      ],
      "stateMutability": "view",
      "type": "function"
    },
    {
      "inputs": [],
      "name": "owner",
      "outputs": [
        {
          "internalType": "address",
          "name": "",
          "type": "address"
        }
      ],
      "stateMutability": "view",
      "type": "function"
    },
    {
      "inputs": [],
      "name": "pause",
      "outputs": [],
      "stateMutability": "nonpayable",
      "type": "function"
    },
    {
      "inputs": [],
      "name": "paused",
      "outputs": [
        {
          "internalType": "bool",
          "name": "",
          "type": "bool"
        }
      ],
      "stateMutability": "view",
      "type": "function"
    },
    {
      "inputs": [
        {
          "internalType": "bytes",
          "name": "performData",
          "type": "bytes"
        }
      ],
      "name": "performUpkeep",
      "outputs": [],
      "stateMutability": "nonpayable",
      "type": "function"
    },
    {
      "inputs": [
        {
          "internalType": "uint256",
          "name": "taskId",
          "type": "uint256"
        }
      ],
      "name": "prev",
      "outputs": [
        {
          "internalType": "uint256",
          "name": "",
          "type": "uint256"
        }
      ],
      "stateMutability": "view",
      "type": "function"
    },
    {
      "inputs": [
        {
          "internalType": "uint256",
          "name": "taskId",
          "type": "uint256"
        }
      ],
      "name": "removeTask",
      "outputs": [],
      "stateMutability": "nonpayable",
      "type": "function"
    },
    {
      "inputs": [],
      "name": "renounceOwnership",
      "outputs": [],
      "stateMutability": "nonpayable",
      "type": "function"
    },
    {
      "inputs": [
        {
          "internalType": "uint256",
          "name": "num",
          "type": "uint256"
        }
      ],
      "name": "setBatchPerformLimist",
      "outputs": [],
      "stateMutability": "nonpayable",
      "type": "function"
    },
    {
      "inputs": [
        {
          "internalType": "uint256",
          "name": "amount",
          "type": "uint256"
        }
      ],
      "name": "setDstGasAmount",
      "outputs": [],
      "stateMutability": "nonpayable",
      "type": "function"
    },
    {
      "inputs": [
        {
          "internalType": "contract IExecutor",
          "name": "_executor",
          "type": "address"
        }
      ],
      "name": "setExecutor",
      "outputs": [],
      "stateMutability": "nonpayable",
      "type": "function"
    },
    {
      "inputs": [
        {
          "internalType": "address",
          "name": "_keeperRegAddr",
          "type": "address"
        }
      ],
      "name": "setKeeper",
      "outputs": [],
      "stateMutability": "nonpayable",
      "type": "function"
    },
    {
      "inputs": [],
      "name": "size",
      "outputs": [
        {
          "internalType": "uint256",
          "name": "",
          "type": "uint256"
        }
      ],
      "stateMutability": "view",
      "type": "function"
    },
    {
      "inputs": [
        {
          "internalType": "uint256",
          "name": "num",
          "type": "uint256"
        }
      ],
      "name": "top",
      "outputs": [
        {
          "internalType": "uint256[]",
          "name": "",
          "type": "uint256[]"
        }
      ],
      "stateMutability": "view",
      "type": "function"
    },
    {
      "inputs": [
        {
          "internalType": "address",
          "name": "newOwner",
          "type": "address"
        }
      ],
      "name": "transferOwnership",
      "outputs": [],
      "stateMutability": "nonpayable",
      "type": "function"
    },
    {
      "inputs": [],
      "name": "unpause",
      "outputs": [],
      "stateMutability": "nonpayable",
      "type": "function"
    },
    {
      "inputs": [
        {
          "internalType": "uint256",
          "name": "amount",
          "type": "uint256"
        },
        {
          "internalType": "address payable",
          "name": "payee",
          "type": "address"
        }
      ],
      "name": "withdraw",
      "outputs": [],
      "stateMutability": "nonpayable",
      "type": "function"
    },
    {
      "stateMutability": "payable",
      "type": "receive"
    }
  ],
  "transactionHash": "0x568f62402a8957a27867d62cf19274a8679e33c1263bf959588b81339564bae7",
  "args": [
    "0x02777053d6764996e594c3E88AF1D58D5363a2e6",
    "0x893BAB56Cb5f4E319f402A5d0100566A363C9300"
  ],
  "numDeployments": 1,
  "solcInputHash": "8f5cdadc06674ad86189e872bbe06f3f",
  "bytecode": "0x60806040526005805560006006553480156200001a57600080fd5b5060405162001987380380620019878339810160408190526200003d91620000dc565b81816200004a336200008c565b6000805460ff60a01b19169055600780546001600160a01b039384166001600160a01b0319918216179091556008805492909316911617905550620001349050565b600080546001600160a01b038381166001600160a01b0319831681178455604051919092169283917f8be0079c531659141344cd1fd0a4f28419497f9722a3daafe3b4186f6b6457e09190a35050565b60008060408385031215620000f057600080fd5b8251620000fd816200011b565b602084015190925062000110816200011b565b809150509250929050565b6001600160a01b03811681146200013157600080fd5b50565b61184380620001446000396000f3fe6080604052600436106101b95760003560e01c8063715018a6116100ec578063aa0a31001161008a578063c81c6c7c11610064578063c81c6c7c1461051b578063d6ff17a014610530578063edd004e514610546578063f2fde38b1461056657600080fd5b8063aa0a3100146104c5578063b15269a5146104e5578063c3084117146104fb57600080fd5b8063862a179e116100c6578063862a179e146104425780638da5cb5b14610462578063949d225d146104805780639507d39a1461049557600080fd5b8063715018a6146103f8578063748747e61461040d5780638456cb591461042d57600080fd5b80633df4ddf41161015957806347799da81161013357806347799da8146103535780635c975abb14610368578063630dc7cb146103925780636e04ff0d146103ca57600080fd5b80633df4ddf4146103095780633f4ba83a1461031e5780634585e33b1461033357600080fd5b80631c3c0ea8116101955780631c3c0ea814610265578063257baa3a14610285578063313ae541146102a557806335671214146102db57600080fd5b8062b34ebd14610203578062f714ce146102255780630fbeb0321461024557600080fd5b366101fe5760408051348152476020820152338183015290517fc6f3fb0fec49e4877342d4625d77a632541f55b7aae0f9d0b34c69b3478706dc9181900360600190a1005b600080fd5b34801561020f57600080fd5b5061022361021e36600461161f565b610586565b005b34801561023157600080fd5b506102236102403660046115ef565b6105f3565b34801561025157600080fd5b506102236102603660046115d6565b61068a565b34801561027157600080fd5b5061022361028036600461140b565b610697565b34801561029157600080fd5b506102236102a036600461146c565b6106c1565b3480156102b157600080fd5b506102c56102c03660046115d6565b6107f9565b6040516102d2919061166d565b60405180910390f35b3480156102e757600080fd5b506102fb6102f63660046115d6565b61080c565b6040519081526020016102d2565b34801561031557600080fd5b506102fb610819565b34801561032a57600080fd5b5061022361082a565b34801561033f57600080fd5b5061022361034e3660046114d0565b61083c565b34801561035f57600080fd5b506002546102fb565b34801561037457600080fd5b50600054600160a01b900460ff1660405190151581526020016102d2565b34801561039e57600080fd5b506008546103b2906001600160a01b031681565b6040516001600160a01b0390911681526020016102d2565b3480156103d657600080fd5b506103ea6103e53660046114d0565b6108c1565b6040516102d29291906116b1565b34801561040457600080fd5b5061022361090a565b34801561041957600080fd5b5061022361042836600461140b565b61091c565b34801561043957600080fd5b506102236109a0565b34801561044e57600080fd5b506007546103b2906001600160a01b031681565b34801561046e57600080fd5b506000546001600160a01b03166103b2565b34801561048c57600080fd5b506001546102fb565b3480156104a157600080fd5b506102fb6104b03660046115d6565b60009081526004602052604090206001015490565b3480156104d157600080fd5b506102236104e03660046115d6565b6109b0565b3480156104f157600080fd5b506102fb60065481565b34801561050757600080fd5b506102236105163660046115d6565b610a01565b34801561052757600080fd5b506102c5610a4c565b34801561053c57600080fd5b506102fb60055481565b34801561055257600080fd5b506102fb6105613660046115d6565b610b33565b34801561057257600080fd5b5061022361058136600461140b565b610b47565b6008546001600160a01b03163314806105a957506000546001600160a01b031633145b6105ce5760405162461bcd60e51b81526004016105c5906116cc565b60405180910390fd5b6000821180156105de5750600081115b156105ef576105ef60018383610bbd565b5050565b6105fb610cca565b6001600160a01b03811661060e57600080fd5b604080518381526001600160a01b03831660208201527f6141b54b56b8a52a8c6f5cd2a857f6117b18ffbf4d46bd3106f300a839cbf5ea910160405180910390a16040516001600160a01b0382169083156108fc029084906000818181858888f19350505050158015610685573d6000803e3d6000fd5b505050565b610692610cca565b600655565b61069f610cca565b600880546001600160a01b0319166001600160a01b0392909216919091179055565b6008546001600160a01b03163314806106e457506000546001600160a01b031633145b6107005760405162461bcd60e51b81526004016105c5906116cc565b60008251118015610712575080518251145b61074c5760405162461bcd60e51b815260206004820152600b60248201526a24b73b30b634b2103632b760a91b60448201526064016105c5565b60005b825181101561068557600083828151811061076c5761076c6117cc565b602002602001015111801561079a57506000828281518110610790576107906117cc565b6020026020010151115b156107e7576107e78382815181106107b4576107b46117cc565b60200260200101518383815181106107ce576107ce6117cc565b60200260200101516001610bbd9092919063ffffffff16565b806107f18161179b565b91505061074f565b6060610806600183610d24565b92915050565b6000610806600183610e07565b60006108256001610e3b565b905090565b610832610cca565b61083a610e51565b565b610844610ea6565b6007546001600160a01b031633148061086757506000546001600160a01b031633145b6108a85760405162461bcd60e51b81526020600482015260126024820152716f6e6c794b6565706572526567697374727960701b60448201526064016105c5565b60006108b68284018461142f565b905061068581610ef3565b600060606108cd610ea6565b60006108d7610a4c565b905060008151119250806040516020016108f1919061166d565b6040516020818303038152906040529150509250929050565b610912610cca565b61083a6000611007565b610924610cca565b6001600160a01b03811661093757600080fd5b600754604080516001600160a01b03928316815291831660208301527fb732223055abcde751d7a24272ffc8a3aa571cb72b443969a4199b7ecd59f8b9910160405180910390a1600780546001600160a01b0319166001600160a01b0392909216919091179055565b6109a8610cca565b61083a611057565b6109b8610cca565b600081116109fc5760405162461bcd60e51b8152602060048201526011602482015270496e76616c6964206c696d6974206e756d60781b60448201526064016105c5565b600555565b6008546001600160a01b0316331480610a2457506000546001600160a01b031633145b610a405760405162461bcd60e51b81526004016105c5906116cc565b610a498161109a565b50565b6060600060055467ffffffffffffffff811115610a6b57610a6b6117e2565b604051908082528060200260200182016040528015610a94578160200160208202803683370190505b509050600080610aa46001610e3b565b90505b600081118015610ab8575060055482105b15610b1e576000818152600460205260409020600101544210610b055780838381518110610ae857610ae86117cc565b602090810291909101015281610afd8161179b565b925050610b0a565b610b1e565b600090815260036020526040902054610aa7565b6005548214610b2b578183525b509092915050565b600081815260036020526040812054610806565b610b4f610cca565b6001600160a01b038116610bb45760405162461bcd60e51b815260206004820152602660248201527f4f776e61626c653a206e6577206f776e657220697320746865207a65726f206160448201526564647265737360d01b60648201526084016105c5565b610a4981611007565b60008211610bfe5760405162461bcd60e51b815260206004820152600e60248201526d072657175697265206964203e20360941b60448201526064016105c5565b600082815260038401602052604090206001015415610c1c57505050565b6000610c2884836110a5565b600081815260028681016020908152604080842080549089905588855281852081905581516060810183528981528084018981528184018881528b885260038d019095529290952094518555905160018501559051929091019190915590915080610c995760018501849055610cb0565b600081815260038601602052604090206002018490555b8454856000610cbe8361179b565b91905055505050505050565b6000546001600160a01b0316331461083a5760405162461bcd60e51b815260206004820181905260248201527f4f776e61626c653a2063616c6c6572206973206e6f7420746865206f776e657260448201526064016105c5565b8154606090821115610d3557825491505b6001821015610d535750604080516000815260208101909152610806565b60008267ffffffffffffffff811115610d6e57610d6e6117e2565b604051908082528060200260200182016040528015610d97578160200160208202803683370190505b5090506000610da585610e3b565b905060005b84811015610dfd578115610dd85781838281518110610dcb57610dcb6117cc565b6020026020010181815250505b6000828152600287016020526040902054915080610df58161179b565b915050610daa565b5090949350505050565b6000610e138383611227565b15610e3257506000818152600383016020526040902060020154610806565b50600092915050565b6000808052600282016020526040812054610806565b610e59611251565b6000805460ff60a01b191690557f5db9ee0a495bf2e6ff9c91a7834c1ba4fdd244a5e8aa4e537bd38aeae4b073aa335b6040516001600160a01b03909116815260200160405180910390a1565b600054600160a01b900460ff161561083a5760405162461bcd60e51b815260206004820152601060248201526f14185d5cd8589b194e881c185d5cd95960821b60448201526064016105c5565b60005b81518110156105ef576000828281518110610f1357610f136117cc565b60200260200101519050610f268161109a565b600854604051630900efe360e11b8152600481018390526001600160a01b0390911690631201dfc690602401600060405180830381600087803b158015610f6c57600080fd5b505af1925050508015610f7d575060015b610ff4573d808015610fab576040519150601f19603f3d011682016040523d82523d6000602084013e610fb0565b606091505b507f8a8daba70101a3ef953fcbe396dcf4370b8204bff0f421bdeaac9867e8fcfe0482610fdc836112a1565b604051610fea9291906116f2565b60405180910390a1505b5080610fff8161179b565b915050610ef6565b600080546001600160a01b038381166001600160a01b0319831681178455604051919092169283917f8be0079c531659141344cd1fd0a4f28419497f9722a3daafe3b4186f6b6457e09190a35050565b61105f610ea6565b6000805460ff60a01b1916600160a01b1790557f62e78cea01bee320cd4e420270b5ea74000d11b0c9f74754ebdbfc544b05a258610e893390565b610a496001826112db565b60008082116110eb5760405162461bcd60e51b815260206004820152601260248201527107265717569726520746172676574203e20360741b60448201526064016105c5565b82546110f957506000610806565b600180840154600081815260038601602052604090209091015480841061112257509050610806565b600061112d86610e3b565b6000818152600388016020526040902060010154909150808611611158576000945050505050610806565b60006001611166858461173c565b901c90508087106111c557845b80156111bf576111838982610e07565b90506000811180156111a85750600081815260038a0160205260409020600101548810155b156111ba579550610806945050505050565b611173565b50611219565b825b801561121757600090815260028901602052604090205480158015906112005750600081815260038a0160205260409020600101548810155b15611212579550610806945050505050565b6111c7565b505b506000979650505050505050565b600080821161123557600080fd5b5060009081526003919091016020526040902060010154151590565b600054600160a01b900460ff1661083a5760405162461bcd60e51b815260206004820152601460248201527314185d5cd8589b194e881b9bdd081c185d5cd95960621b60448201526064016105c5565b60606044825110156112c157505060408051602081019091526000815290565b600482019150818060200190518101906108069190611542565b6112e58282611227565b156105ef5760006112f68383610e07565b6000838152600285016020526040808220548383529120819055909150801561133057600081815260038501602052604090206002018290555b8061133d57600184018290555b6000838152600385016020908152604080832083815560018101849055600290810184905587019091528120819055845490859061137a83611784565b919050555050505050565b600082601f83011261139657600080fd5b8135602067ffffffffffffffff8211156113b2576113b26117e2565b8160051b6113c182820161170b565b8381528281019086840183880185018910156113dc57600080fd5b600093505b858410156113ff5780358352600193909301929184019184016113e1565b50979650505050505050565b60006020828403121561141d57600080fd5b8135611428816117f8565b9392505050565b60006020828403121561144157600080fd5b813567ffffffffffffffff81111561145857600080fd5b61146484828501611385565b949350505050565b6000806040838503121561147f57600080fd5b823567ffffffffffffffff8082111561149757600080fd5b6114a386838701611385565b935060208501359150808211156114b957600080fd5b506114c685828601611385565b9150509250929050565b600080602083850312156114e357600080fd5b823567ffffffffffffffff808211156114fb57600080fd5b818501915085601f83011261150f57600080fd5b81358181111561151e57600080fd5b86602082850101111561153057600080fd5b60209290920196919550909350505050565b60006020828403121561155457600080fd5b815167ffffffffffffffff8082111561156c57600080fd5b818401915084601f83011261158057600080fd5b815181811115611592576115926117e2565b6115a5601f8201601f191660200161170b565b91508082528560208285010111156115bc57600080fd5b6115cd816020840160208601611754565b50949350505050565b6000602082840312156115e857600080fd5b5035919050565b6000806040838503121561160257600080fd5b823591506020830135611614816117f8565b809150509250929050565b6000806040838503121561163257600080fd5b50508035926020909101359150565b60008151808452611659816020860160208601611754565b601f01601f19169290920160200192915050565b6020808252825182820181905260009190848201906040850190845b818110156116a557835183529284019291840191600101611689565b50909695505050505050565b82151581526040602082015260006114646040830184611641565b6020808252600c908201526b37b7363ca2bc32b1baba37b960a11b604082015260600190565b8281526040602082015260006114646040830184611641565b604051601f8201601f1916810167ffffffffffffffff81118282101715611734576117346117e2565b604052919050565b6000821982111561174f5761174f6117b6565b500190565b60005b8381101561176f578181015183820152602001611757565b8381111561177e576000848401525b50505050565b600081611793576117936117b6565b506000190190565b60006000198214156117af576117af6117b6565b5060010190565b634e487b7160e01b600052601160045260246000fd5b634e487b7160e01b600052603260045260246000fd5b634e487b7160e01b600052604160045260246000fd5b6001600160a01b0381168114610a4957600080fdfea26469706673582212205c009888c930165e373b4943c664da093da1ce90873ac1c38c5e3787a43a269f64736f6c63430008060033",
  "devdoc": {
    "kind": "dev",
    "methods": {
      "constructor": {
        "params": {
          "_executor": "The LucksExecutor contract",
          "_keeperRegAddr": "The address of the keeper registry contract"
        }
      },
      "owner()": {
        "details": "Returns the address of the current owner."
      },
      "paused()": {
        "details": "Returns true if the contract is paused, and false otherwise."
      },
      "performUpkeep(bytes)": {
        "details": "The input to this method should not be trusted, and the caller of the method should not even be restricted to any single registry. Anyone should be able call it, and the input should be validated, there is no guarantee that the data passed in is the performData returned from checkUpkeep. This could happen due to malicious keepers, racing keepers, or simply a state change while the performUpkeep transaction is waiting for confirmation. Always validate the data passed in.",
        "params": {
          "performData": "is the data which was passed back from the checkData simulation. If it is encoded, it can easily be decoded into other types by calling `abi.decode`. This data should not be trusted, and should be validated against the contract's current state."
        }
      },
      "renounceOwnership()": {
        "details": "Leaves the contract without owner. It will not be possible to call `onlyOwner` functions anymore. Can only be called by the current owner. NOTE: Renouncing ownership will leave the contract without an owner, thereby removing any functionality that is only available to the owner."
      },
      "transferOwnership(address)": {
        "details": "Transfers ownership of the contract to a new account (`newOwner`). Can only be called by the current owner."
      },
      "withdraw(uint256,address)": {
        "params": {
          "amount": "The amount of eth (in wei) to withdraw",
          "payee": "The address to pay"
        }
      }
    },
    "version": 1
  },
  "userdoc": {
    "kind": "user",
    "methods": {
      "pause()": {
        "notice": "Pauses the contrac t, which prevents executing performUpkeep"
      },
      "performUpkeep(bytes)": {
        "notice": "method that is actually executed by the keepers, via the registry. The data returned by the checkUpkeep simulation will be passed into this method to actually be executed."
      },
      "setExecutor(address)": {
        "notice": "set operator"
      },
      "setKeeper(address)": {
        "notice": "Sets the keeper registry address"
      },
      "unpause()": {
        "notice": "Unpauses the contract"
      },
      "withdraw(uint256,address)": {
        "notice": "Withdraws the contract balance"
      }
    },
    "version": 1
  },
  "storageLayout": {
    "storage": [
      {
        "astId": 941,
        "contract": "contracts/other/AutoCloseTask.sol:AutoCloseTask",
        "label": "_owner",
        "offset": 0,
        "slot": "0",
        "type": "t_address"
      },
      {
        "astId": 1064,
        "contract": "contracts/other/AutoCloseTask.sol:AutoCloseTask",
        "label": "_paused",
        "offset": 20,
        "slot": "0",
        "type": "t_bool"
      },
      {
        "astId": 11901,
        "contract": "contracts/other/AutoCloseTask.sol:AutoCloseTask",
        "label": "taskList",
        "offset": 0,
        "slot": "1",
        "type": "t_struct(SortedMap)10438_storage"
      },
      {
        "astId": 11904,
        "contract": "contracts/other/AutoCloseTask.sol:AutoCloseTask",
        "label": "BATCH_PERFORM_LIMIT",
        "offset": 0,
        "slot": "5",
        "type": "t_uint256"
      },
      {
        "astId": 11907,
        "contract": "contracts/other/AutoCloseTask.sol:AutoCloseTask",
        "label": "DST_GAS_AMOUNT",
        "offset": 0,
        "slot": "6",
        "type": "t_uint256"
      },
      {
        "astId": 11909,
        "contract": "contracts/other/AutoCloseTask.sol:AutoCloseTask",
        "label": "KEEPER",
        "offset": 0,
        "slot": "7",
        "type": "t_address"
      },
      {
        "astId": 11912,
        "contract": "contracts/other/AutoCloseTask.sol:AutoCloseTask",
        "label": "EXECUTOR",
        "offset": 0,
        "slot": "8",
        "type": "t_contract(IExecutor)8101"
      }
    ],
    "types": {
      "t_address": {
        "encoding": "inplace",
        "label": "address",
        "numberOfBytes": "20"
      },
      "t_bool": {
        "encoding": "inplace",
        "label": "bool",
        "numberOfBytes": "1"
      },
      "t_contract(IExecutor)8101": {
        "encoding": "inplace",
        "label": "contract IExecutor",
        "numberOfBytes": "20"
      },
      "t_mapping(t_uint256,t_struct(Item)10418_storage)": {
        "encoding": "mapping",
        "key": "t_uint256",
        "label": "mapping(uint256 => struct SortedLinkMap.Item)",
        "numberOfBytes": "32",
        "value": "t_struct(Item)10418_storage"
      },
      "t_mapping(t_uint256,t_uint256)": {
        "encoding": "mapping",
        "key": "t_uint256",
        "label": "mapping(uint256 => uint256)",
        "numberOfBytes": "32",
        "value": "t_uint256"
      },
      "t_struct(Item)10418_storage": {
        "encoding": "inplace",
        "label": "struct SortedLinkMap.Item",
        "members": [
          {
            "astId": 10413,
            "contract": "contracts/other/AutoCloseTask.sol:AutoCloseTask",
            "label": "id",
            "offset": 0,
            "slot": "0",
            "type": "t_uint256"
          },
          {
            "astId": 10415,
            "contract": "contracts/other/AutoCloseTask.sol:AutoCloseTask",
            "label": "value",
            "offset": 0,
            "slot": "1",
            "type": "t_uint256"
          },
          {
            "astId": 10417,
            "contract": "contracts/other/AutoCloseTask.sol:AutoCloseTask",
            "label": "leftId",
            "offset": 0,
            "slot": "2",
            "type": "t_uint256"
          }
        ],
        "numberOfBytes": "96"
      },
      "t_struct(SortedMap)10438_storage": {
        "encoding": "inplace",
        "label": "struct SortedLinkMap.SortedMap",
        "members": [
          {
            "astId": 10426,
            "contract": "contracts/other/AutoCloseTask.sol:AutoCloseTask",
            "label": "count",
            "offset": 0,
            "slot": "0",
            "type": "t_uint256"
          },
          {
            "astId": 10428,
            "contract": "contracts/other/AutoCloseTask.sol:AutoCloseTask",
            "label": "maxId",
            "offset": 0,
            "slot": "1",
            "type": "t_uint256"
          },
          {
            "astId": 10432,
            "contract": "contracts/other/AutoCloseTask.sol:AutoCloseTask",
            "label": "keys",
            "offset": 0,
            "slot": "2",
            "type": "t_mapping(t_uint256,t_uint256)"
          },
          {
            "astId": 10437,
            "contract": "contracts/other/AutoCloseTask.sol:AutoCloseTask",
            "label": "nodes",
            "offset": 0,
            "slot": "3",
            "type": "t_mapping(t_uint256,t_struct(Item)10418_storage)"
          }
        ],
        "numberOfBytes": "128"
      },
      "t_uint256": {
        "encoding": "inplace",
        "label": "uint256",
        "numberOfBytes": "32"
      }
    }
  }
}