{
  "address": "0x393A7167B733bd2Ad2174419314355252a047A9A",
  "abi": [
    {
      "inputs": [],
      "stateMutability": "nonpayable",
      "type": "constructor"
    },
    {
      "anonymous": false,
      "inputs": [
        {
          "indexed": true,
          "internalType": "address",
          "name": "account",
          "type": "address"
        },
        {
          "indexed": true,
          "internalType": "address",
          "name": "operator",
          "type": "address"
        },
        {
          "indexed": false,
          "internalType": "bool",
          "name": "approved",
          "type": "bool"
        }
      ],
      "name": "ApprovalForAll",
      "type": "event"
    },
    {
      "anonymous": false,
      "inputs": [
        {
          "indexed": true,
          "internalType": "address",
          "name": "operator",
          "type": "address"
        },
        {
          "indexed": true,
          "internalType": "address",
          "name": "from",
          "type": "address"
        },
        {
          "indexed": true,
          "internalType": "address",
          "name": "to",
          "type": "address"
        },
        {
          "indexed": false,
          "internalType": "uint256[]",
          "name": "ids",
          "type": "uint256[]"
        },
        {
          "indexed": false,
          "internalType": "uint256[]",
          "name": "values",
          "type": "uint256[]"
        }
      ],
      "name": "TransferBatch",
      "type": "event"
    },
    {
      "anonymous": false,
      "inputs": [
        {
          "indexed": true,
          "internalType": "address",
          "name": "operator",
          "type": "address"
        },
        {
          "indexed": true,
          "internalType": "address",
          "name": "from",
          "type": "address"
        },
        {
          "indexed": true,
          "internalType": "address",
          "name": "to",
          "type": "address"
        },
        {
          "indexed": false,
          "internalType": "uint256",
          "name": "id",
          "type": "uint256"
        },
        {
          "indexed": false,
          "internalType": "uint256",
          "name": "value",
          "type": "uint256"
        }
      ],
      "name": "TransferSingle",
      "type": "event"
    },
    {
      "anonymous": false,
      "inputs": [
        {
          "indexed": false,
          "internalType": "string",
          "name": "value",
          "type": "string"
        },
        {
          "indexed": true,
          "internalType": "uint256",
          "name": "id",
          "type": "uint256"
        }
      ],
      "name": "URI",
      "type": "event"
    },
    {
      "inputs": [],
      "name": "GOLD",
      "outputs": [
        {
          "internalType": "uint256",
          "name": "",
          "type": "uint256"
        }
      ],
      "stateMutability": "view",
      "type": "function"
    },
    {
      "inputs": [],
      "name": "SHIELD",
      "outputs": [
        {
          "internalType": "uint256",
          "name": "",
          "type": "uint256"
        }
      ],
      "stateMutability": "view",
      "type": "function"
    },
    {
      "inputs": [],
      "name": "SILVER",
      "outputs": [
        {
          "internalType": "uint256",
          "name": "",
          "type": "uint256"
        }
      ],
      "stateMutability": "view",
      "type": "function"
    },
    {
      "inputs": [],
      "name": "SWORD",
      "outputs": [
        {
          "internalType": "uint256",
          "name": "",
          "type": "uint256"
        }
      ],
      "stateMutability": "view",
      "type": "function"
    },
    {
      "inputs": [],
      "name": "THORS_HAMMER",
      "outputs": [
        {
          "internalType": "uint256",
          "name": "",
          "type": "uint256"
        }
      ],
      "stateMutability": "view",
      "type": "function"
    },
    {
      "inputs": [
        {
          "internalType": "address",
          "name": "account",
          "type": "address"
        },
        {
          "internalType": "uint256",
          "name": "id",
          "type": "uint256"
        }
      ],
      "name": "balanceOf",
      "outputs": [
        {
          "internalType": "uint256",
          "name": "",
          "type": "uint256"
        }
      ],
      "stateMutability": "view",
      "type": "function"
    },
    {
      "inputs": [
        {
          "internalType": "address[]",
          "name": "accounts",
          "type": "address[]"
        },
        {
          "internalType": "uint256[]",
          "name": "ids",
          "type": "uint256[]"
        }
      ],
      "name": "balanceOfBatch",
      "outputs": [
        {
          "internalType": "uint256[]",
          "name": "",
          "type": "uint256[]"
        }
      ],
      "stateMutability": "view",
      "type": "function"
    },
    {
      "inputs": [
        {
          "internalType": "address",
          "name": "account",
          "type": "address"
        },
        {
          "internalType": "address",
          "name": "operator",
          "type": "address"
        }
      ],
      "name": "isApprovedForAll",
      "outputs": [
        {
          "internalType": "bool",
          "name": "",
          "type": "bool"
        }
      ],
      "stateMutability": "view",
      "type": "function"
    },
    {
      "inputs": [
        {
          "internalType": "address",
          "name": "from",
          "type": "address"
        },
        {
          "internalType": "address",
          "name": "to",
          "type": "address"
        },
        {
          "internalType": "uint256[]",
          "name": "ids",
          "type": "uint256[]"
        },
        {
          "internalType": "uint256[]",
          "name": "amounts",
          "type": "uint256[]"
        },
        {
          "internalType": "bytes",
          "name": "data",
          "type": "bytes"
        }
      ],
      "name": "safeBatchTransferFrom",
      "outputs": [],
      "stateMutability": "nonpayable",
      "type": "function"
    },
    {
      "inputs": [
        {
          "internalType": "address",
          "name": "from",
          "type": "address"
        },
        {
          "internalType": "address",
          "name": "to",
          "type": "address"
        },
        {
          "internalType": "uint256",
          "name": "id",
          "type": "uint256"
        },
        {
          "internalType": "uint256",
          "name": "amount",
          "type": "uint256"
        },
        {
          "internalType": "bytes",
          "name": "data",
          "type": "bytes"
        }
      ],
      "name": "safeTransferFrom",
      "outputs": [],
      "stateMutability": "nonpayable",
      "type": "function"
    },
    {
      "inputs": [
        {
          "internalType": "address",
          "name": "operator",
          "type": "address"
        },
        {
          "internalType": "bool",
          "name": "approved",
          "type": "bool"
        }
      ],
      "name": "setApprovalForAll",
      "outputs": [],
      "stateMutability": "nonpayable",
      "type": "function"
    },
    {
      "inputs": [
        {
          "internalType": "bytes4",
          "name": "interfaceId",
          "type": "bytes4"
        }
      ],
      "name": "supportsInterface",
      "outputs": [
        {
          "internalType": "bool",
          "name": "",
          "type": "bool"
        }
      ],
      "stateMutability": "view",
      "type": "function"
    },
    {
      "inputs": [
        {
          "internalType": "uint256",
          "name": "",
          "type": "uint256"
        }
      ],
      "name": "uri",
      "outputs": [
        {
          "internalType": "string",
          "name": "",
          "type": "string"
        }
      ],
      "stateMutability": "view",
      "type": "function"
    }
  ],
  "transactionHash": "0xa9daddda1bdfcde3d3daa469510f6941cf758920e09f48ee99fbd4d048952267",
  "args": [],
  "numDeployments": 1,
  "solcInputHash": "d3ffdef576f9078135eb9cfc2628ab2d",
  "bytecode": "0x60806040523480156200001157600080fd5b5060405180606001604052806027815260200162001bbb60279139620000378162000112565b5062000064336000670de0b6b3a7640000604051806020016040528060008152506200012b60201b60201c565b620000943360016b033b2e3c9fd0803ce8000000604051806020016040528060008152506200012b60201b60201c565b620000bc336002633b9aca00604051806020016040528060008152506200012b60201b60201c565b620000e4336003633b9aca00604051806020016040528060008152506200012b60201b60201c565b6200010c336004633b9aca00604051806020016040528060008152506200012b60201b60201c565b62000775565b8051620001279060029060208401906200048f565b5050565b6001600160a01b038416620001915760405162461bcd60e51b815260206004820152602160248201527f455243313135353a206d696e7420746f20746865207a65726f206164647265736044820152607360f81b60648201526084015b60405180910390fd5b3360006200019f856200024d565b90506000620001ae856200024d565b90506000868152602081815260408083206001600160a01b038b16845290915281208054879290620001e290849062000614565b909155505060408051878152602081018790526001600160a01b03808a1692600092918716917fc3d58168c5ae7397731d063d5bbf3d657854427343f4c083240f7aacaa2d0f62910160405180910390a46200024483600089898989620002a3565b50505050505050565b604080516001808252818301909252606091600091906020808301908036833701905050905082816000815181106200028a576200028a620006b3565b602090810291909101015292915050565b505050505050565b620002c2846001600160a01b03166200048060201b620005411760201c565b156200029b5760405163f23a6e6160e01b81526001600160a01b0385169063f23a6e6190620002fe9089908990889088908890600401620005b8565b602060405180830381600087803b1580156200031957600080fd5b505af19250505080156200034c575060408051601f3d908101601f19168201909252620003499181019062000535565b60015b6200040d576200035b620006c9565b806308c379a014156200039c575062000373620006e6565b806200038057506200039e565b8060405162461bcd60e51b8152600401620001889190620005ff565b505b60405162461bcd60e51b815260206004820152603460248201527f455243313135353a207472616e7366657220746f206e6f6e204552433131353560448201527f526563656976657220696d706c656d656e746572000000000000000000000000606482015260840162000188565b6001600160e01b0319811663f23a6e6160e01b14620002445760405162461bcd60e51b815260206004820152602860248201527f455243313135353a204552433131353552656365697665722072656a656374656044820152676420746f6b656e7360c01b606482015260840162000188565b6001600160a01b03163b151590565b8280546200049d906200063b565b90600052602060002090601f016020900481019282620004c157600085556200050c565b82601f10620004dc57805160ff19168380011785556200050c565b828001600101855582156200050c579182015b828111156200050c578251825591602001919060010190620004ef565b506200051a9291506200051e565b5090565b5b808211156200051a57600081556001016200051f565b6000602082840312156200054857600080fd5b81516001600160e01b0319811681146200056157600080fd5b9392505050565b6000815180845260005b81811015620005905760208185018101518683018201520162000572565b81811115620005a3576000602083870101525b50601f01601f19169290920160200192915050565b6001600160a01b03868116825285166020820152604081018490526060810183905260a060808201819052600090620005f49083018462000568565b979650505050505050565b60208152600062000561602083018462000568565b600082198211156200063657634e487b7160e01b600052601160045260246000fd5b500190565b600181811c908216806200065057607f821691505b602082108114156200067257634e487b7160e01b600052602260045260246000fd5b50919050565b601f8201601f191681016001600160401b0381118282101715620006ac57634e487b7160e01b600052604160045260246000fd5b6040525050565b634e487b7160e01b600052603260045260246000fd5b600060033d1115620006e35760046000803e5060005160e01c5b90565b600060443d1015620006f55790565b6040516003193d81016004833e81513d6001600160401b0380831160248401831017156200072557505050505090565b82850191508151818111156200073e5750505050505090565b843d8701016020828501011115620007595750505050505090565b6200076a6020828601018762000678565b509095945050505050565b61143680620007856000396000f3fe608060405234801561001057600080fd5b50600436106100ce5760003560e01c80634e1273f41161008c578063d562e20411610066578063d562e2041461019c578063e3e55f08146101a4578063e985e9c5146101ac578063f242432a146101e857600080fd5b80634e1273f4146101615780635b2725ed14610181578063a22cb4651461018957600080fd5b8062fdd58e146100d357806301ffc9a7146100f95780630e89341c1461011c57806313dc989f1461013c5780632eb2c2d6146101445780633e4bee3814610159575b600080fd5b6100e66100e1366004610e46565b6101fb565b6040519081526020015b60405180910390f35b61010c610107366004610f41565b610291565b60405190151581526020016100f0565b61012f61012a366004610f82565b6102e3565b6040516100f09190611107565b6100e6600381565b610157610152366004610cfb565b610377565b005b6100e6600081565b61017461016f366004610e70565b6103c3565b6040516100f091906110c6565b6100e6600481565b610157610197366004610e0a565b6104ed565b6100e6600281565b6100e6600181565b61010c6101ba366004610cc8565b6001600160a01b03918216600090815260016020908152604080832093909416825291909152205460ff1690565b6101576101f6366004610da5565b6104fc565b60006001600160a01b03831661026b5760405162461bcd60e51b815260206004820152602a60248201527f455243313135353a2061646472657373207a65726f206973206e6f742061207660448201526930b634b21037bbb732b960b11b60648201526084015b60405180910390fd5b506000908152602081815260408083206001600160a01b03949094168352929052205490565b60006001600160e01b03198216636cdb3d1360e11b14806102c257506001600160e01b031982166303a24d0760e21b145b806102dd57506301ffc9a760e01b6001600160e01b03198316145b92915050565b6060600280546102f29061127c565b80601f016020809104026020016040519081016040528092919081815260200182805461031e9061127c565b801561036b5780601f106103405761010080835404028352916020019161036b565b820191906000526020600020905b81548152906001019060200180831161034e57829003601f168201915b50505050509050919050565b6001600160a01b038516331480610393575061039385336101ba565b6103af5760405162461bcd60e51b81526004016102629061111a565b6103bc8585858585610550565b5050505050565b606081518351146104285760405162461bcd60e51b815260206004820152602960248201527f455243313135353a206163636f756e747320616e6420696473206c656e677468604482015268040dad2e6dac2e8c6d60bb1b6064820152608401610262565b6000835167ffffffffffffffff8111156104445761044461132b565b60405190808252806020026020018201604052801561046d578160200160208202803683370190505b50905060005b84518110156104e5576104b885828151811061049157610491611315565b60200260200101518583815181106104ab576104ab611315565b60200260200101516101fb565b8282815181106104ca576104ca611315565b60209081029190910101526104de816112e4565b9050610473565b509392505050565b6104f833838361072d565b5050565b6001600160a01b038516331480610518575061051885336101ba565b6105345760405162461bcd60e51b81526004016102629061111a565b6103bc858585858561080e565b6001600160a01b03163b151590565b81518351146105b25760405162461bcd60e51b815260206004820152602860248201527f455243313135353a2069647320616e6420616d6f756e7473206c656e677468206044820152670dad2e6dac2e8c6d60c31b6064820152608401610262565b6001600160a01b0384166105d85760405162461bcd60e51b8152600401610262906111b1565b3360005b84518110156106bf5760008582815181106105f9576105f9611315565b60200260200101519050600085838151811061061757610617611315565b602090810291909101810151600084815280835260408082206001600160a01b038e1683529093529190912054909150818110156106675760405162461bcd60e51b8152600401610262906111f6565b6000838152602081815260408083206001600160a01b038e8116855292528083208585039055908b168252812080548492906106a4908490611264565b92505081905550505050806106b8906112e4565b90506105dc565b50846001600160a01b0316866001600160a01b0316826001600160a01b03167f4a39dc06d4c0dbc64b70af90fd698a233a518aa5d07e595d983b8c0526c8f7fb878760405161070f9291906110d9565b60405180910390a4610725818787878787610938565b505050505050565b816001600160a01b0316836001600160a01b031614156107a15760405162461bcd60e51b815260206004820152602960248201527f455243313135353a2073657474696e6720617070726f76616c20737461747573604482015268103337b91039b2b63360b91b6064820152608401610262565b6001600160a01b03838116600081815260016020908152604080832094871680845294825291829020805460ff191686151590811790915591519182527f17307eab39ab6107e8899845ad3d59bd9653f200f220920489ca2b5937696c31910160405180910390a3505050565b6001600160a01b0384166108345760405162461bcd60e51b8152600401610262906111b1565b33600061084085610aac565b9050600061084d85610aac565b90506000868152602081815260408083206001600160a01b038c168452909152902054858110156108905760405162461bcd60e51b8152600401610262906111f6565b6000878152602081815260408083206001600160a01b038d8116855292528083208985039055908a168252812080548892906108cd908490611264565b909155505060408051888152602081018890526001600160a01b03808b16928c821692918816917fc3d58168c5ae7397731d063d5bbf3d657854427343f4c083240f7aacaa2d0f62910160405180910390a461092d848a8a8a8a8a610af7565b505050505050505050565b6001600160a01b0384163b156107255760405163bc197c8160e01b81526001600160a01b0385169063bc197c819061097c9089908990889088908890600401611023565b602060405180830381600087803b15801561099657600080fd5b505af19250505080156109c6575060408051601f3d908101601f191682019092526109c391810190610f65565b60015b610a73576109d2611341565b806308c379a01415610a0c57506109e761135d565b806109f25750610a0e565b8060405162461bcd60e51b81526004016102629190611107565b505b60405162461bcd60e51b815260206004820152603460248201527f455243313135353a207472616e7366657220746f206e6f6e20455243313135356044820152732932b1b2b4bb32b91034b6b83632b6b2b73a32b960611b6064820152608401610262565b6001600160e01b0319811663bc197c8160e01b14610aa35760405162461bcd60e51b815260040161026290611169565b50505050505050565b60408051600180825281830190925260609160009190602080830190803683370190505090508281600081518110610ae657610ae6611315565b602090810291909101015292915050565b6001600160a01b0384163b156107255760405163f23a6e6160e01b81526001600160a01b0385169063f23a6e6190610b3b9089908990889088908890600401611081565b602060405180830381600087803b158015610b5557600080fd5b505af1925050508015610b85575060408051601f3d908101601f19168201909252610b8291810190610f65565b60015b610b91576109d2611341565b6001600160e01b0319811663f23a6e6160e01b14610aa35760405162461bcd60e51b815260040161026290611169565b80356001600160a01b0381168114610bd857600080fd5b919050565b600082601f830112610bee57600080fd5b81356020610bfb82611240565b604051610c0882826112b7565b8381528281019150858301600585901b87018401881015610c2857600080fd5b60005b85811015610c4757813584529284019290840190600101610c2b565b5090979650505050505050565b600082601f830112610c6557600080fd5b813567ffffffffffffffff811115610c7f57610c7f61132b565b604051610c96601f8301601f1916602001826112b7565b818152846020838601011115610cab57600080fd5b816020850160208301376000918101602001919091529392505050565b60008060408385031215610cdb57600080fd5b610ce483610bc1565b9150610cf260208401610bc1565b90509250929050565b600080600080600060a08688031215610d1357600080fd5b610d1c86610bc1565b9450610d2a60208701610bc1565b9350604086013567ffffffffffffffff80821115610d4757600080fd5b610d5389838a01610bdd565b94506060880135915080821115610d6957600080fd5b610d7589838a01610bdd565b93506080880135915080821115610d8b57600080fd5b50610d9888828901610c54565b9150509295509295909350565b600080600080600060a08688031215610dbd57600080fd5b610dc686610bc1565b9450610dd460208701610bc1565b93506040860135925060608601359150608086013567ffffffffffffffff811115610dfe57600080fd5b610d9888828901610c54565b60008060408385031215610e1d57600080fd5b610e2683610bc1565b915060208301358015158114610e3b57600080fd5b809150509250929050565b60008060408385031215610e5957600080fd5b610e6283610bc1565b946020939093013593505050565b60008060408385031215610e8357600080fd5b823567ffffffffffffffff80821115610e9b57600080fd5b818501915085601f830112610eaf57600080fd5b81356020610ebc82611240565b604051610ec982826112b7565b8381528281019150858301600585901b870184018b1015610ee957600080fd5b600096505b84871015610f1357610eff81610bc1565b835260019690960195918301918301610eee565b5096505086013592505080821115610f2a57600080fd5b50610f3785828601610bdd565b9150509250929050565b600060208284031215610f5357600080fd5b8135610f5e816113e7565b9392505050565b600060208284031215610f7757600080fd5b8151610f5e816113e7565b600060208284031215610f9457600080fd5b5035919050565b600081518084526020808501945080840160005b83811015610fcb57815187529582019590820190600101610faf565b509495945050505050565b6000815180845260005b81811015610ffc57602081850181015186830182015201610fe0565b8181111561100e576000602083870101525b50601f01601f19169290920160200192915050565b6001600160a01b0386811682528516602082015260a06040820181905260009061104f90830186610f9b565b82810360608401526110618186610f9b565b905082810360808401526110758185610fd6565b98975050505050505050565b6001600160a01b03868116825285166020820152604081018490526060810183905260a0608082018190526000906110bb90830184610fd6565b979650505050505050565b602081526000610f5e6020830184610f9b565b6040815260006110ec6040830185610f9b565b82810360208401526110fe8185610f9b565b95945050505050565b602081526000610f5e6020830184610fd6565b6020808252602f908201527f455243313135353a2063616c6c6572206973206e6f7420746f6b656e206f776e60408201526e195c881b9bdc88185c1c1c9bdd9959608a1b606082015260800190565b60208082526028908201527f455243313135353a204552433131353552656365697665722072656a656374656040820152676420746f6b656e7360c01b606082015260800190565b60208082526025908201527f455243313135353a207472616e7366657220746f20746865207a65726f206164604082015264647265737360d81b606082015260800190565b6020808252602a908201527f455243313135353a20696e73756666696369656e742062616c616e636520666f60408201526939103a3930b739b332b960b11b606082015260800190565b600067ffffffffffffffff82111561125a5761125a61132b565b5060051b60200190565b60008219821115611277576112776112ff565b500190565b600181811c9082168061129057607f821691505b602082108114156112b157634e487b7160e01b600052602260045260246000fd5b50919050565b601f8201601f1916810167ffffffffffffffff811182821017156112dd576112dd61132b565b6040525050565b60006000198214156112f8576112f86112ff565b5060010190565b634e487b7160e01b600052601160045260246000fd5b634e487b7160e01b600052603260045260246000fd5b634e487b7160e01b600052604160045260246000fd5b600060033d111561135a5760046000803e5060005160e01c5b90565b600060443d101561136b5790565b6040516003193d81016004833e81513d67ffffffffffffffff816024840111818411171561139b57505050505090565b82850191508151818111156113b35750505050505090565b843d87010160208285010111156113cd5750505050505090565b6113dc602082860101876112b7565b509095945050505050565b6001600160e01b0319811681146113fd57600080fd5b5056fea2646970667358221220fae5b07acaecea49cb9ac31893133ffb3e38d0682b182dca71dd84ad4276854b64736f6c6343000806003368747470733a2f2f67616d652e6578616d706c652f6170692f6974656d2f7b69647d2e6a736f6e",
  "devdoc": {
    "kind": "dev",
    "methods": {
      "balanceOf(address,uint256)": {
        "details": "See {IERC1155-balanceOf}. Requirements: - `account` cannot be the zero address."
      },
      "balanceOfBatch(address[],uint256[])": {
        "details": "See {IERC1155-balanceOfBatch}. Requirements: - `accounts` and `ids` must have the same length."
      },
      "isApprovedForAll(address,address)": {
        "details": "See {IERC1155-isApprovedForAll}."
      },
      "safeBatchTransferFrom(address,address,uint256[],uint256[],bytes)": {
        "details": "See {IERC1155-safeBatchTransferFrom}."
      },
      "safeTransferFrom(address,address,uint256,uint256,bytes)": {
        "details": "See {IERC1155-safeTransferFrom}."
      },
      "setApprovalForAll(address,bool)": {
        "details": "See {IERC1155-setApprovalForAll}."
      },
      "supportsInterface(bytes4)": {
        "details": "See {IERC165-supportsInterface}."
      },
      "uri(uint256)": {
        "details": "See {IERC1155MetadataURI-uri}. This implementation returns the same URI for *all* token types. It relies on the token type ID substitution mechanism https://eips.ethereum.org/EIPS/eip-1155#metadata[defined in the EIP]. Clients calling this function must replace the `\\{id\\}` substring with the actual token type ID."
      }
    },
    "version": 1
  },
  "userdoc": {
    "kind": "user",
    "methods": {},
    "version": 1
  },
  "storageLayout": {
    "storage": [
      {
        "astId": 25,
        "contract": "contracts/mock/GameItems.sol:GameItems",
        "label": "_balances",
        "offset": 0,
        "slot": "0",
        "type": "t_mapping(t_uint256,t_mapping(t_address,t_uint256))"
      },
      {
        "astId": 31,
        "contract": "contracts/mock/GameItems.sol:GameItems",
        "label": "_operatorApprovals",
        "offset": 0,
        "slot": "1",
        "type": "t_mapping(t_address,t_mapping(t_address,t_bool))"
      },
      {
        "astId": 33,
        "contract": "contracts/mock/GameItems.sol:GameItems",
        "label": "_uri",
        "offset": 0,
        "slot": "2",
        "type": "t_string_storage"
      }
    ],
    "types": {
      "t_address": {
        "encoding": "inplace",
        "label": "address",
        "numberOfBytes": "20"
      },
      "t_bool": {
        "encoding": "inplace",
        "label": "bool",
        "numberOfBytes": "1"
      },
      "t_mapping(t_address,t_bool)": {
        "encoding": "mapping",
        "key": "t_address",
        "label": "mapping(address => bool)",
        "numberOfBytes": "32",
        "value": "t_bool"
      },
      "t_mapping(t_address,t_mapping(t_address,t_bool))": {
        "encoding": "mapping",
        "key": "t_address",
        "label": "mapping(address => mapping(address => bool))",
        "numberOfBytes": "32",
        "value": "t_mapping(t_address,t_bool)"
      },
      "t_mapping(t_address,t_uint256)": {
        "encoding": "mapping",
        "key": "t_address",
        "label": "mapping(address => uint256)",
        "numberOfBytes": "32",
        "value": "t_uint256"
      },
      "t_mapping(t_uint256,t_mapping(t_address,t_uint256))": {
        "encoding": "mapping",
        "key": "t_uint256",
        "label": "mapping(uint256 => mapping(address => uint256))",
        "numberOfBytes": "32",
        "value": "t_mapping(t_address,t_uint256)"
      },
      "t_string_storage": {
        "encoding": "bytes",
        "label": "string",
        "numberOfBytes": "32"
      },
      "t_uint256": {
        "encoding": "inplace",
        "label": "uint256",
        "numberOfBytes": "32"
      }
    }
  }
}