{
  "address": "0x303E0BF6a156e3371B5D565cfd4593aD044925Ea",
  "abi": [
    {
      "inputs": [
        {
          "internalType": "address[]",
          "name": "_acceptTokens",
          "type": "address[]"
        },
        {
          "internalType": "address",
          "name": "_recipient",
          "type": "address"
        },
        {
          "internalType": "uint256",
          "name": "_fee",
          "type": "uint256"
        },
        {
          "internalType": "address",
          "name": "_inviteRecipient",
          "type": "address"
        },
        {
          "internalType": "uint256",
          "name": "_inviteFee",
          "type": "uint256"
        },
        {
          "internalType": "contract IExecutor",
          "name": "_executor",
          "type": "address"
        },
        {
          "internalType": "contract IVRF",
          "name": "_vrf",
          "type": "address"
        },
        {
          "internalType": "contract IAuto",
          "name": "_auto_close",
          "type": "address"
        },
        {
          "internalType": "contract IAuto",
          "name": "_auto_draw",
          "type": "address"
        }
      ],
      "stateMutability": "nonpayable",
      "type": "constructor"
    },
    {
      "anonymous": false,
      "inputs": [
        {
          "indexed": true,
          "internalType": "address",
          "name": "previousOwner",
          "type": "address"
        },
        {
          "indexed": true,
          "internalType": "address",
          "name": "newOwner",
          "type": "address"
        }
      ],
      "name": "OwnershipTransferred",
      "type": "event"
    },
    {
      "inputs": [],
      "name": "AUTO_CLOSE",
      "outputs": [
        {
          "internalType": "contract IAuto",
          "name": "",
          "type": "address"
        }
      ],
      "stateMutability": "view",
      "type": "function"
    },
    {
      "inputs": [],
      "name": "AUTO_DRAW",
      "outputs": [
        {
          "internalType": "contract IAuto",
          "name": "",
          "type": "address"
        }
      ],
      "stateMutability": "view",
      "type": "function"
    },
    {
      "inputs": [],
      "name": "DRAW_DELAY_SEC",
      "outputs": [
        {
          "internalType": "uint32",
          "name": "",
          "type": "uint32"
        }
      ],
      "stateMutability": "view",
      "type": "function"
    },
    {
      "inputs": [],
      "name": "EXECUTOR",
      "outputs": [
        {
          "internalType": "contract IExecutor",
          "name": "",
          "type": "address"
        }
      ],
      "stateMutability": "view",
      "type": "function"
    },
    {
      "inputs": [],
      "name": "MAX_PER_JOIN_NUM",
      "outputs": [
        {
          "internalType": "uint32",
          "name": "",
          "type": "uint32"
        }
      ],
      "stateMutability": "view",
      "type": "function"
    },
    {
      "inputs": [],
      "name": "PROXY_PUNKS",
      "outputs": [
        {
          "internalType": "contract IProxyNFTStation",
          "name": "",
          "type": "address"
        }
      ],
      "stateMutability": "view",
      "type": "function"
    },
    {
      "inputs": [],
      "name": "VRF",
      "outputs": [
        {
          "internalType": "contract IVRF",
          "name": "",
          "type": "address"
        }
      ],
      "stateMutability": "view",
      "type": "function"
    },
    {
      "inputs": [
        {
          "internalType": "address",
          "name": "",
          "type": "address"
        }
      ],
      "name": "acceptTokens",
      "outputs": [
        {
          "internalType": "bool",
          "name": "",
          "type": "bool"
        }
      ],
      "stateMutability": "view",
      "type": "function"
    },
    {
      "inputs": [
        {
          "internalType": "address",
          "name": "acceptToken",
          "type": "address"
        }
      ],
      "name": "checkAcceptToken",
      "outputs": [
        {
          "internalType": "bool",
          "name": "",
          "type": "bool"
        }
      ],
      "stateMutability": "view",
      "type": "function"
    },
    {
      "inputs": [
        {
          "internalType": "address",
          "name": "account",
          "type": "address"
        },
        {
          "internalType": "address",
          "name": "token",
          "type": "address"
        },
        {
          "internalType": "uint256",
          "name": "amount",
          "type": "uint256"
        }
      ],
      "name": "checkExclusive",
      "outputs": [
        {
          "internalType": "bool",
          "name": "",
          "type": "bool"
        }
      ],
      "stateMutability": "view",
      "type": "function"
    },
    {
      "inputs": [
        {
          "internalType": "address",
          "name": "user",
          "type": "address"
        },
        {
          "internalType": "uint256",
          "name": "taskId",
          "type": "uint256"
        },
        {
          "internalType": "uint32",
          "name": "num",
          "type": "uint32"
        },
        {
          "internalType": "string",
          "name": "note",
          "type": "string"
        }
      ],
      "name": "checkJoinTask",
      "outputs": [
        {
          "internalType": "bool",
          "name": "",
          "type": "bool"
        }
      ],
      "stateMutability": "view",
      "type": "function"
    },
    {
      "inputs": [
        {
          "internalType": "address",
          "name": "addr",
          "type": "address"
        }
      ],
      "name": "checkNFTContract",
      "outputs": [
        {
          "internalType": "bool",
          "name": "",
          "type": "bool"
        }
      ],
      "stateMutability": "view",
      "type": "function"
    },
    {
      "inputs": [
        {
          "internalType": "address",
          "name": "user",
          "type": "address"
        },
        {
          "components": [
            {
              "internalType": "address",
              "name": "seller",
              "type": "address"
            },
            {
              "internalType": "address",
              "name": "nftContract",
              "type": "address"
            },
            {
              "internalType": "uint256[]",
              "name": "tokenIds",
              "type": "uint256[]"
            },
            {
              "internalType": "uint256[]",
              "name": "tokenAmounts",
              "type": "uint256[]"
            },
            {
              "internalType": "address",
              "name": "acceptToken",
              "type": "address"
            },
            {
              "internalType": "enum TaskStatus",
              "name": "status",
              "type": "uint8"
            },
            {
              "internalType": "uint256",
              "name": "startTime",
              "type": "uint256"
            },
            {
              "internalType": "uint256",
              "name": "endTime",
              "type": "uint256"
            },
            {
              "internalType": "uint256",
              "name": "targetAmount",
              "type": "uint256"
            },
            {
              "internalType": "uint256",
              "name": "price",
              "type": "uint256"
            },
            {
              "internalType": "uint256",
              "name": "copyId",
              "type": "uint256"
            },
            {
              "internalType": "uint256",
              "name": "amountCollected",
              "type": "uint256"
            },
            {
              "internalType": "uint256",
              "name": "depositId",
              "type": "uint256"
            }
          ],
          "internalType": "struct TaskItem",
          "name": "item",
          "type": "tuple"
        }
      ],
      "name": "checkNewTask",
      "outputs": [
        {
          "internalType": "bool",
          "name": "",
          "type": "bool"
        }
      ],
      "stateMutability": "view",
      "type": "function"
    },
    {
      "inputs": [
        {
          "components": [
            {
              "internalType": "string",
              "name": "title",
              "type": "string"
            },
            {
              "internalType": "string",
              "name": "note",
              "type": "string"
            }
          ],
          "internalType": "struct TaskExt",
          "name": "ext",
          "type": "tuple"
        }
      ],
      "name": "checkNewTaskExt",
      "outputs": [
        {
          "internalType": "bool",
          "name": "",
          "type": "bool"
        }
      ],
      "stateMutability": "pure",
      "type": "function"
    },
    {
      "inputs": [
        {
          "components": [
            {
              "internalType": "address",
              "name": "seller",
              "type": "address"
            },
            {
              "internalType": "address",
              "name": "nftContract",
              "type": "address"
            },
            {
              "internalType": "uint256[]",
              "name": "tokenIds",
              "type": "uint256[]"
            },
            {
              "internalType": "uint256[]",
              "name": "tokenAmounts",
              "type": "uint256[]"
            },
            {
              "internalType": "address",
              "name": "acceptToken",
              "type": "address"
            },
            {
              "internalType": "enum TaskStatus",
              "name": "status",
              "type": "uint8"
            },
            {
              "internalType": "uint256",
              "name": "startTime",
              "type": "uint256"
            },
            {
              "internalType": "uint256",
              "name": "endTime",
              "type": "uint256"
            },
            {
              "internalType": "uint256",
              "name": "targetAmount",
              "type": "uint256"
            },
            {
              "internalType": "uint256",
              "name": "price",
              "type": "uint256"
            },
            {
              "internalType": "uint256",
              "name": "copyId",
              "type": "uint256"
            },
            {
              "internalType": "uint256",
              "name": "amountCollected",
              "type": "uint256"
            },
            {
              "internalType": "uint256",
              "name": "depositId",
              "type": "uint256"
            }
          ],
          "internalType": "struct TaskItem",
          "name": "item",
          "type": "tuple"
        }
      ],
      "name": "checkNewTaskRemote",
      "outputs": [
        {
          "internalType": "bool",
          "name": "",
          "type": "bool"
        }
      ],
      "stateMutability": "view",
      "type": "function"
    },
    {
      "inputs": [
        {
          "internalType": "uint32",
          "name": "num",
          "type": "uint32"
        }
      ],
      "name": "checkPerJoinLimit",
      "outputs": [
        {
          "internalType": "bool",
          "name": "",
          "type": "bool"
        }
      ],
      "stateMutability": "view",
      "type": "function"
    },
    {
      "inputs": [
        {
          "internalType": "address",
          "name": "addr",
          "type": "address"
        },
        {
          "internalType": "address",
          "name": "seller",
          "type": "address"
        },
        {
          "internalType": "uint256[]",
          "name": "tokenIds",
          "type": "uint256[]"
        },
        {
          "internalType": "uint256[]",
          "name": "amounts",
          "type": "uint256[]"
        }
      ],
      "name": "checkTokenListing",
      "outputs": [
        {
          "internalType": "bool",
          "name": "",
          "type": "bool"
        },
        {
          "internalType": "string",
          "name": "",
          "type": "string"
        }
      ],
      "stateMutability": "view",
      "type": "function"
    },
    {
      "inputs": [],
      "name": "feeRecipient",
      "outputs": [
        {
          "internalType": "address",
          "name": "",
          "type": "address"
        }
      ],
      "stateMutability": "view",
      "type": "function"
    },
    {
      "inputs": [],
      "name": "getAutoClose",
      "outputs": [
        {
          "internalType": "contract IAuto",
          "name": "",
          "type": "address"
        }
      ],
      "stateMutability": "view",
      "type": "function"
    },
    {
      "inputs": [],
      "name": "getAutoDraw",
      "outputs": [
        {
          "internalType": "contract IAuto",
          "name": "",
          "type": "address"
        }
      ],
      "stateMutability": "view",
      "type": "function"
    },
    {
      "inputs": [],
      "name": "getDrawDelay",
      "outputs": [
        {
          "internalType": "uint32",
          "name": "",
          "type": "uint32"
        }
      ],
      "stateMutability": "view",
      "type": "function"
    },
    {
      "inputs": [
        {
          "internalType": "address",
          "name": "token",
          "type": "address"
        }
      ],
      "name": "getMinTargetLimit",
      "outputs": [
        {
          "internalType": "uint256",
          "name": "",
          "type": "uint256"
        }
      ],
      "stateMutability": "view",
      "type": "function"
    },
    {
      "inputs": [],
      "name": "getProtocolFee",
      "outputs": [
        {
          "internalType": "uint256",
          "name": "",
          "type": "uint256"
        }
      ],
      "stateMutability": "view",
      "type": "function"
    },
    {
      "inputs": [],
      "name": "getProtocolFeeRecipient",
      "outputs": [
        {
          "internalType": "address",
          "name": "",
          "type": "address"
        }
      ],
      "stateMutability": "view",
      "type": "function"
    },
    {
      "inputs": [],
      "name": "getProtocolInviteFee",
      "outputs": [
        {
          "internalType": "uint256",
          "name": "",
          "type": "uint256"
        }
      ],
      "stateMutability": "view",
      "type": "function"
    },
    {
      "inputs": [],
      "name": "getProtocolInviteFeeRecipient",
      "outputs": [
        {
          "internalType": "address",
          "name": "",
          "type": "address"
        }
      ],
      "stateMutability": "view",
      "type": "function"
    },
    {
      "inputs": [],
      "name": "getVRF",
      "outputs": [
        {
          "internalType": "contract IVRF",
          "name": "",
          "type": "address"
        }
      ],
      "stateMutability": "view",
      "type": "function"
    },
    {
      "inputs": [],
      "name": "inviteFeeRecipient",
      "outputs": [
        {
          "internalType": "address",
          "name": "",
          "type": "address"
        }
      ],
      "stateMutability": "view",
      "type": "function"
    },
    {
      "inputs": [
        {
          "internalType": "address",
          "name": "",
          "type": "address"
        }
      ],
      "name": "minTargetAmount",
      "outputs": [
        {
          "internalType": "uint256",
          "name": "",
          "type": "uint256"
        }
      ],
      "stateMutability": "view",
      "type": "function"
    },
    {
      "inputs": [
        {
          "internalType": "address",
          "name": "",
          "type": "address"
        }
      ],
      "name": "operators",
      "outputs": [
        {
          "internalType": "bool",
          "name": "",
          "type": "bool"
        }
      ],
      "stateMutability": "view",
      "type": "function"
    },
    {
      "inputs": [],
      "name": "owner",
      "outputs": [
        {
          "internalType": "address",
          "name": "",
          "type": "address"
        }
      ],
      "stateMutability": "view",
      "type": "function"
    },
    {
      "inputs": [],
      "name": "protocolFee",
      "outputs": [
        {
          "internalType": "uint256",
          "name": "",
          "type": "uint256"
        }
      ],
      "stateMutability": "view",
      "type": "function"
    },
    {
      "inputs": [],
      "name": "protocolInviteFee",
      "outputs": [
        {
          "internalType": "uint256",
          "name": "",
          "type": "uint256"
        }
      ],
      "stateMutability": "view",
      "type": "function"
    },
    {
      "inputs": [],
      "name": "renounceOwnership",
      "outputs": [],
      "stateMutability": "nonpayable",
      "type": "function"
    },
    {
      "inputs": [
        {
          "internalType": "address[]",
          "name": "tokens",
          "type": "address[]"
        },
        {
          "internalType": "bool",
          "name": "enable",
          "type": "bool"
        }
      ],
      "name": "setAcceptTokens",
      "outputs": [],
      "stateMutability": "nonpayable",
      "type": "function"
    },
    {
      "inputs": [
        {
          "internalType": "contract IAuto",
          "name": "_auto_close",
          "type": "address"
        },
        {
          "internalType": "contract IAuto",
          "name": "_auto_draw",
          "type": "address"
        }
      ],
      "name": "setAuto",
      "outputs": [],
      "stateMutability": "nonpayable",
      "type": "function"
    },
    {
      "inputs": [
        {
          "internalType": "uint32",
          "name": "second",
          "type": "uint32"
        }
      ],
      "name": "setDrawDelay",
      "outputs": [],
      "stateMutability": "nonpayable",
      "type": "function"
    },
    {
      "inputs": [
        {
          "internalType": "contract IExecutor",
          "name": "_executor",
          "type": "address"
        }
      ],
      "name": "setExecutor",
      "outputs": [],
      "stateMutability": "nonpayable",
      "type": "function"
    },
    {
      "inputs": [
        {
          "internalType": "uint32",
          "name": "num",
          "type": "uint32"
        }
      ],
      "name": "setJoinLimitNum",
      "outputs": [],
      "stateMutability": "nonpayable",
      "type": "function"
    },
    {
      "inputs": [
        {
          "internalType": "address[]",
          "name": "tokens",
          "type": "address[]"
        },
        {
          "internalType": "uint256[]",
          "name": "amounts",
          "type": "uint256[]"
        }
      ],
      "name": "setMinTargetAmount",
      "outputs": [],
      "stateMutability": "nonpayable",
      "type": "function"
    },
    {
      "inputs": [
        {
          "internalType": "address",
          "name": "addr",
          "type": "address"
        },
        {
          "internalType": "bool",
          "name": "enable",
          "type": "bool"
        }
      ],
      "name": "setOperator",
      "outputs": [],
      "stateMutability": "nonpayable",
      "type": "function"
    },
    {
      "inputs": [
        {
          "internalType": "uint256",
          "name": "fee",
          "type": "uint256"
        }
      ],
      "name": "setProtocolFee",
      "outputs": [],
      "stateMutability": "nonpayable",
      "type": "function"
    },
    {
      "inputs": [
        {
          "internalType": "address",
          "name": "addr",
          "type": "address"
        }
      ],
      "name": "setProtocolFeeRecipient",
      "outputs": [],
      "stateMutability": "nonpayable",
      "type": "function"
    },
    {
      "inputs": [
        {
          "internalType": "uint256",
          "name": "fee",
          "type": "uint256"
        }
      ],
      "name": "setProtocolInviteFee",
      "outputs": [],
      "stateMutability": "nonpayable",
      "type": "function"
    },
    {
      "inputs": [
        {
          "internalType": "address",
          "name": "addr",
          "type": "address"
        }
      ],
      "name": "setProtocolInviteFeeRecipient",
      "outputs": [],
      "stateMutability": "nonpayable",
      "type": "function"
    },
    {
      "inputs": [
        {
          "internalType": "contract IVRF",
          "name": "addr",
          "type": "address"
        }
      ],
      "name": "setVRF",
      "outputs": [],
      "stateMutability": "nonpayable",
      "type": "function"
    },
    {
      "inputs": [
        {
          "internalType": "address",
          "name": "newOwner",
          "type": "address"
        }
      ],
      "name": "transferOwnership",
      "outputs": [],
      "stateMutability": "nonpayable",
      "type": "function"
    }
  ],
  "transactionHash": "0x96760a2e74a8e740096d10b091b7ce2af712be5688e913297943e44b5295f032",
  "args": [
    [
      "0x0000000000000000000000000000000000000000"
    ],
    "0x33326bd584BFbba655cA8026b070D9a3E165a0E6",
    500,
    "0x33326bd584BFbba655cA8026b070D9a3E165a0E6",
    1000,
    "0x893BAB56Cb5f4E319f402A5d0100566A363C9300",
    "0xb1BB64e9401e1EE822887357c8f20179bF677543",
    "0x8C89b1F356F966c9B5E17415fA43D0fb560b29b3",
    "0x150C1C70D945Bfff54612DD2e3F41Bb73a861cAe"
  ],
  "numDeployments": 1,
  "solcInputHash": "8f5cdadc06674ad86189e872bbe06f3f",
  "bytecode": "0x608060405260088054600160a01b600160e01b03191664078000027160a41b1790556101f46009553480156200003457600080fd5b506040516200287b3803806200287b833981016040819052620000579162000233565b6200006233620000ea565b600680546001600160a01b03199081166001600160a01b038b8116919091179092556009899055600880548216898416179055600787905560018054821687841617815560028054831687851617905560038054831686851617905560048054909216928416929092179055620000db908a906200013a565b505050505050505050620003ef565b600080546001600160a01b038381166001600160a01b0319831681178455604051919092169283917f8be0079c531659141344cd1fd0a4f28419497f9722a3daafe3b4186f6b6457e09190a35050565b6000546001600160a01b0316331480620001635750336000908152600a602052604090205460ff165b620001a35760405162461bcd60e51b815260206004820152600c60248201526b37b7363ca7b832b930ba37b960a11b604482015260640160405180910390fd5b60005b8251811015620002115781600b6000858481518110620001ca57620001ca620003c3565b6020908102919091018101516001600160a01b03168252810191909152604001600020805460ff191691151591909117905580620002088162000399565b915050620001a6565b505050565b80516001600160a01b03811681146200022e57600080fd5b919050565b60008060008060008060008060006101208a8c0312156200025357600080fd5b89516001600160401b03808211156200026b57600080fd5b818c0191508c601f8301126200028057600080fd5b815181811115620002955762000295620003d9565b604051601f19603f8360051b011681018181108482111715620002bc57620002bc620003d9565b8060405250809250818152602081019250602084018f60208460051b8701011115620002e757600080fd5b600094505b828510156200031657620003008162000216565b84526001949094019360209384019301620002ec565b509b506200032b9250505060208b0162000216565b975060408a015196506200034260608b0162000216565b955060808a015194506200035960a08b0162000216565b93506200036960c08b0162000216565b92506200037960e08b0162000216565b91506200038a6101008b0162000216565b90509295985092959850929598565b6000600019821415620003bc57634e487b7160e01b600052601160045260246000fd5b5060010190565b634e487b7160e01b600052603260045260246000fd5b634e487b7160e01b600052604160045260246000fd5b61247c80620003ff6000396000f3fe608060405234801561001057600080fd5b50600436106102955760003560e01c8063873360d711610167578063cb9b4e12116100ce578063e521cb9211610087578063e521cb9214610620578063e67aa0d114610633578063e7e46def1461064a578063edd3159d1461065d578063f2fde38b1461066e578063f5a62e191461068157600080fd5b8063cb9b4e12146105a8578063d3a01b0a146105bb578063d45d76b3146105ce578063d48ed1a5146105f1578063d773745614610604578063dd8067e71461061757600080fd5b80639ef4fdd5116101205780639ef4fdd51461054b578063a126285b1461055e578063a23c6e9e14610571578063a5a4103114610584578063b0e21e8a1461058c578063b6ccbcc81461059557600080fd5b8063873360d7146104d95780638859e523146104f05780638da5cb5b146105035780638ddf73a1146105145780639861b7b1146105255780639a6ad8531461053857600080fd5b80634e30dd901161020b578063715018a6116101c4578063715018a61461044e57806372c8fc0e14610456578063770ee87014610467578063787dce3d146104875780637a6bbf181461049a5780637f994c19146104ad57600080fd5b80634e30dd90146103e7578063558a7297146103fa578063630dc7cb1461040d5780636896c5ce146104205780636c8ee8b2146104335780636feaf5cf1461044657600080fd5b80631c3c0ea81161025d5780631c3c0ea8146103415780631e07dbb81461035457806323961975146103675780633156a58d1461038c578063375a32be1461039d57806346904840146103d457600080fd5b80630b7bd2da1461029a578063136611d5146102af57806313e7c9d8146102d757806319af3253146102fa5780631a88f8fc14610320575b600080fd5b6102ad6102a8366004611f93565b610694565b005b6102c26102bd366004612067565b61070f565b60405190151581526020015b60405180910390f35b6102c26102e5366004611cef565b600a6020526000908152604090205460ff1681565b600854600160c01b900463ffffffff165b60405163ffffffff90911681526020016102ce565b61033361032e366004611d29565b6107e8565b6040516102ce92919061225f565b6102ad61034f366004611cef565b610ba9565b6102ad6103623660046121f7565b610bd3565b6003546001600160a01b03165b6040516001600160a01b0390911681526020016102ce565b6004546001600160a01b0316610374565b6103c66103ab366004611cef565b6001600160a01b03166000908152600c602052604090205490565b6040519081526020016102ce565b600654610374906001600160a01b031681565b600554610374906001600160a01b031681565b6102ad610408366004611df2565b610c3d565b600154610374906001600160a01b031681565b600354610374906001600160a01b031681565b6102c2610441366004611e2b565b610c70565b6007546103c6565b6102ad610f82565b6006546001600160a01b0316610374565b6103c6610475366004611cef565b600c6020526000908152604090205481565b6102ad6104953660046121c5565b610f96565b6102ad6104a83660046121f7565b610fa3565b6102c26104bb366004611cef565b6001600160a01b03166000908152600b602052604090205460ff1690565b60085461030b90600160a01b900463ffffffff1681565b6102c26104fe366004611cef565b61100d565b6000546001600160a01b0316610374565b6008546001600160a01b0316610374565b6102c26105333660046121f7565b6111ab565b6102ad610546366004611cef565b6111e6565b6102c2610559366004611db1565b611210565b600254610374906001600160a01b031681565b6102ad61057f3660046121c5565b611374565b6009546103c6565b6103c660095481565b6102c26105a3366004611fc1565b611381565b6102ad6105b6366004611f30565b6113ff565b600454610374906001600160a01b031681565b6102c26105dc366004611cef565b600b6020526000908152604090205460ff1681565b6102ad6105ff366004611ed7565b6114af565b600854610374906001600160a01b031681565b6103c660075481565b6102ad61062e366004611cef565b61156e565b60085461030b90600160c01b900463ffffffff1681565b6102c2610658366004611e7a565b611598565b6002546001600160a01b0316610374565b6102ad61067c366004611cef565b611853565b6102ad61068f366004611cef565b6118cc565b6000546001600160a01b03163314806106bc5750336000908152600a602052604090205460ff165b6106e15760405162461bcd60e51b81526004016106d89061228d565b60405180910390fd5b600380546001600160a01b039384166001600160a01b03199182161790915560048054929093169116179055565b60808101516001600160a01b03166000908152600b602052604081205460ff1661077b5760405162461bcd60e51b815260206004820152601760248201527f556e737570706f7274656420616363657074546f6b656e00000000000000000060448201526064016106d8565b60808201516001600160a01b03166000908152600c60205260409020548015806107aa57508083610100015110155b6107df5760405162461bcd60e51b81526020600482015260066024820152651d185c99d95d60d21b60448201526064016106d8565b50600192915050565b6040516301ffc9a760e01b81526380ac58cd60e01b60048201526000906060906001600160a01b038716906301ffc9a79060240160206040518083038186803b15801561083457600080fd5b505afa158015610848573d6000803e3d6000fd5b505050506040513d601f19601f8201168201806040525081019061086c9190611f76565b156109835760005b845181101561097d57856001600160a01b0316876001600160a01b0316636352211e8784815181106108a8576108a86123ea565b60200260200101516040518263ffffffff1660e01b81526004016108ce91815260200190565b60206040518083038186803b1580156108e657600080fd5b505afa1580156108fa573d6000803e3d6000fd5b505050506040513d601f19601f8201168201806040525081019061091e9190611d0c565b6001600160a01b03161461096b57505060408051808201909152601981527f546f6b656e206c6973746564206f72206e6f74206f776e657200000000000000602082015260009150610ba0565b8061097581612379565b915050610874565b50610b8b565b6040516301ffc9a760e01b8152636cdb3d1360e11b60048201526001600160a01b038716906301ffc9a79060240160206040518083038186803b1580156109c957600080fd5b505afa1580156109dd573d6000803e3d6000fd5b505050506040513d601f19601f82011682018060405250810190610a019190611f76565b15610b8b578251845114610a495760405162461bcd60e51b815260206004820152600f60248201526e24b73b30b634b21034b239903632b760891b60448201526064016106d8565b60005b8451811015610b8957838181518110610a6757610a676123ea565b6020026020010151876001600160a01b031662fdd58e88888581518110610a9057610a906123ea565b60200260200101516040518363ffffffff1660e01b8152600401610ac99291906001600160a01b03929092168252602082015260400190565b60206040518083038186803b158015610ae157600080fd5b505afa158015610af5573d6000803e3d6000fd5b505050506040513d601f19601f82011682018060405250810190610b1991906121de565b10158015610b4057506000848281518110610b3657610b366123ea565b6020026020010151115b610b77575050604080518082019091526011815270616d6f756e74206f722062616c616e636560781b602082015260009150610ba0565b80610b8181612379565b915050610a4c565b505b50506040805160208101909152600081526001905b94509492505050565b610bb1611932565b600180546001600160a01b0319166001600160a01b0392909216919091179055565b6000546001600160a01b0316331480610bfb5750336000908152600a602052604090205460ff165b610c175760405162461bcd60e51b81526004016106d89061228d565b6008805463ffffffff909216600160a01b0263ffffffff60a01b19909216919091179055565b610c45611932565b6001600160a01b03919091166000908152600a60205260409020805460ff1916911515919091179055565b80516000906001600160a01b031615801590610ca15750826001600160a01b031682600001516001600160a01b0316145b610cd65760405162461bcd60e51b815260206004820152600660248201526539b2b63632b960d11b60448201526064016106d8565b600082604001515111610d165760405162461bcd60e51b8152602060048201526008602482015267746f6b656e49647360c01b60448201526064016106d8565b8160e001514210610d535760405162461bcd60e51b8152602060048201526007602482015266656e6454696d6560c81b60448201526064016106d8565b62014a78428360e00151610d679190612362565b118015610d8557506228de80428360e00151610d839190612362565b105b610dbc5760405162461bcd60e51b8152602060048201526008602482015267323ab930ba34b7b760c11b60448201526064016106d8565b6000826101200151118015610dda5750816101000151826101200151105b8015610df85750610120820151610100830151610df69161198c565b155b610e3c5760405162461bcd60e51b81526020600482015260156024820152741c1c9a58d9481bdc881d185c99d95d105b5bdd5b9d605a1b60448201526064016106d8565b6000610e5b83610120015184610100015161199890919063ffffffff16565b9050600081118015610e705750620186a08111155b8015610e845750610e8281600a61198c565b155b610eb65760405162461bcd60e51b81526020600482015260036024820152626e756d60e81b60448201526064016106d8565b61016083015115610ef35760405162461bcd60e51b815260206004820152600760248201526618dbdb1b1958dd60ca1b60448201526064016106d8565b610f00836020015161100d565b610f325760405162461bcd60e51b81526020600482015260036024820152621b999d60ea1b60448201526064016106d8565b600080610f5185602001518660000151876040015188606001516107e8565b91509150818190610f755760405162461bcd60e51b81526004016106d8919061227a565b5060019695505050505050565b610f8a611932565b610f9460006119a4565b565b610f9e611932565b600955565b6000546001600160a01b0316331480610fcb5750336000908152600a602052604090205460ff165b610fe75760405162461bcd60e51b81526004016106d89061228d565b6008805463ffffffff909216600160c01b0263ffffffff60c01b19909216919091179055565b60006001600160a01b0382161580159061103057506001600160a01b0382163b15155b6110625760405162461bcd60e51b81526020600482015260036024820152621b999d60ea1b60448201526064016106d8565b6040516301ffc9a760e01b81526380ac58cd60e01b60048201526001600160a01b038316906301ffc9a79060240160206040518083038186803b1580156110a857600080fd5b505afa1580156110bc573d6000803e3d6000fd5b505050506040513d601f19601f820116820180604052508101906110e09190611f76565b8061116457506040516301ffc9a760e01b8152636cdb3d1360e11b60048201526001600160a01b038316906301ffc9a79060240160206040518083038186803b15801561112c57600080fd5b505afa158015611140573d6000803e3d6000fd5b505050506040513d601f19601f820116820180604052508101906111649190611f76565b6111a35760405162461bcd60e51b815260206004820152601060248201526f125b9d985b1a590818dbdb9d1c9858dd60821b60448201526064016106d8565b506001919050565b6008546000906001600160a01b90910463ffffffff1610806111e0575060085463ffffffff600160a01b909104811690831611155b92915050565b6111ee611932565b600880546001600160a01b0319166001600160a01b0392909216919091179055565b6000808211801561122a57506001600160a01b0383163b15155b15611369576040516301ffc9a760e01b81526380ac58cd60e01b60048201526001600160a01b038416906301ffc9a79060240160206040518083038186803b15801561127557600080fd5b505afa158015611289573d6000803e3d6000fd5b505050506040513d601f19601f820116820180604052508101906112ad9190611f76565b15611338576040516370a0823160e01b81526001600160a01b0385811660048301528391908516906370a08231906024015b60206040518083038186803b1580156112f757600080fd5b505afa15801561130b573d6000803e3d6000fd5b505050506040513d601f19601f8201168201806040525081019061132f91906121de565b1015905061136d565b6040516370a0823160e01b81526001600160a01b0385811660048301528391908516906370a08231906024016112df565b5060015b9392505050565b61137c611932565b600755565b600081515161010010156113bf5760405162461bcd60e51b81526020600482015260056024820152647469746c6560d81b60448201526064016106d8565b61010082602001515111156111a35760405162461bcd60e51b81526004016106d8906020808252600490820152636e6f746560e01b604082015260600190565b6000546001600160a01b03163314806114275750336000908152600a602052604090205460ff165b6114435760405162461bcd60e51b81526004016106d89061228d565b60005b82518110156114aa5781600b6000858481518110611466576114666123ea565b6020908102919091018101516001600160a01b03168252810191909152604001600020805460ff1916911515919091179055806114a281612379565b915050611446565b505050565b6000546001600160a01b03163314806114d75750336000908152600a602052604090205460ff165b6114f35760405162461bcd60e51b81526004016106d89061228d565b60005b82518110156114aa57818181518110611511576115116123ea565b6020026020010151600c600085848151811061152f5761152f6123ea565b60200260200101516001600160a01b03166001600160a01b0316815260200190815260200160002081905550808061156690612379565b9150506114f6565b611576611932565b600680546001600160a01b0319166001600160a01b0392909216919091179055565b6000610100825111156115de5760405162461bcd60e51b815260206004820152600e60248201526d4e6f746520746f6f206c6172676560901b60448201526064016106d8565b6115e7836111ab565b6116255760405162461bcd60e51b815260206004820152600f60248201526e13dd995c881a9bda5b881b1a5b5a5d608a1b60448201526064016106d8565b60008363ffffffff16116116615760405162461bcd60e51b81526020600482015260036024820152626e756d60e81b60448201526064016106d8565b600154604051630eb2f3bf60e11b8152600481018690526000916001600160a01b031690631d65e77e9060240160006040518083038186803b1580156116a657600080fd5b505afa1580156116ba573d6000803e3d6000fd5b505050506040513d6000823e601f3d908101601f191682016040526116e291908101906120a3565b9050856001600160a01b031681600001516001600160a01b0316141561173c5760405162461bcd60e51b815260206004820152600f60248201526e2737ba1030b63637bb9037bbb732b960891b60448201526064016106d8565b8060c00151421015801561175457508060e001514211155b61178a5760405162461bcd60e51b8152602060048201526007602482015266656e6454696d6560c81b60448201526064016106d8565b60008160a0015160058111156117a2576117a26123d4565b14806117c3575060018160a0015160058111156117c1576117c16123d4565b145b6117f85760405162461bcd60e51b815260206004820152600660248201526573746174757360d01b60448201526064016106d8565b60006118188563ffffffff168361012001516119f490919063ffffffff16565b905060008111610f755760405162461bcd60e51b8152602060048201526006602482015265185b5bdd5b9d60d21b60448201526064016106d8565b61185b611932565b6001600160a01b0381166118c05760405162461bcd60e51b815260206004820152602660248201527f4f776e61626c653a206e6577206f776e657220697320746865207a65726f206160448201526564647265737360d01b60648201526084016106d8565b6118c9816119a4565b50565b6000546001600160a01b03163314806118f45750336000908152600a602052604090205460ff165b6119105760405162461bcd60e51b81526004016106d89061228d565b600280546001600160a01b0319166001600160a01b0392909216919091179055565b6000546001600160a01b03163314610f945760405162461bcd60e51b815260206004820181905260248201527f4f776e61626c653a2063616c6c6572206973206e6f7420746865206f776e657260448201526064016106d8565b600061136d8284612394565b600061136d828461232f565b600080546001600160a01b038381166001600160a01b0319831681178455604051919092169283917f8be0079c531659141344cd1fd0a4f28419497f9722a3daafe3b4186f6b6457e09190a35050565b600061136d8284612343565b8035611a0b81612416565b919050565b8051611a0b81612416565b600082601f830112611a2c57600080fd5b81356020611a41611a3c8361230c565b6122dc565b80838252828201915082860187848660051b8901011115611a6157600080fd5b60005b85811015611a89578135611a7781612416565b84529284019290840190600101611a64565b5090979650505050505050565b600082601f830112611aa757600080fd5b81356020611ab7611a3c8361230c565b80838252828201915082860187848660051b8901011115611ad757600080fd5b60005b85811015611a8957813584529284019290840190600101611ada565b600082601f830112611b0757600080fd5b81516020611b17611a3c8361230c565b80838252828201915082860187848660051b8901011115611b3757600080fd5b60005b85811015611a8957815184529284019290840190600101611b3a565b8035611a0b81612439565b8051611a0b81612439565b600082601f830112611b7d57600080fd5b81356001600160401b03811115611b9657611b96612400565b611ba9601f8201601f19166020016122dc565b818152846020838601011115611bbe57600080fd5b816020850160208301376000918101602001919091529392505050565b60006101a08284031215611bee57600080fd5b611bf66122b3565b9050611c0182611a00565b8152611c0f60208301611a00565b602082015260408201356001600160401b0380821115611c2e57600080fd5b611c3a85838601611a96565b60408401526060840135915080821115611c5357600080fd5b50611c6084828501611a96565b606083015250611c7260808301611a00565b6080820152611c8360a08301611b56565b60a082015260c0828101359082015260e0808301359082015261010080830135908201526101208083013590820152610140808301359082015261016080830135908201526101809182013591810191909152919050565b803563ffffffff81168114611a0b57600080fd5b600060208284031215611d0157600080fd5b813561136d81612416565b600060208284031215611d1e57600080fd5b815161136d81612416565b60008060008060808587031215611d3f57600080fd5b8435611d4a81612416565b93506020850135611d5a81612416565b925060408501356001600160401b0380821115611d7657600080fd5b611d8288838901611a96565b93506060870135915080821115611d9857600080fd5b50611da587828801611a96565b91505092959194509250565b600080600060608486031215611dc657600080fd5b8335611dd181612416565b92506020840135611de181612416565b929592945050506040919091013590565b60008060408385031215611e0557600080fd5b8235611e1081612416565b91506020830135611e208161242b565b809150509250929050565b60008060408385031215611e3e57600080fd5b8235611e4981612416565b915060208301356001600160401b03811115611e6457600080fd5b611e7085828601611bdb565b9150509250929050565b60008060008060808587031215611e9057600080fd5b8435611e9b81612416565b935060208501359250611eb060408601611cdb565b915060608501356001600160401b03811115611ecb57600080fd5b611da587828801611b6c565b60008060408385031215611eea57600080fd5b82356001600160401b0380821115611f0157600080fd5b611f0d86838701611a1b565b93506020850135915080821115611f2357600080fd5b50611e7085828601611a96565b60008060408385031215611f4357600080fd5b82356001600160401b03811115611f5957600080fd5b611f6585828601611a1b565b9250506020830135611e208161242b565b600060208284031215611f8857600080fd5b815161136d8161242b565b60008060408385031215611fa657600080fd5b8235611fb181612416565b91506020830135611e2081612416565b600060208284031215611fd357600080fd5b81356001600160401b0380821115611fea57600080fd5b9083019060408286031215611ffe57600080fd5b60405160408101818110838211171561201957612019612400565b60405282358281111561202b57600080fd5b61203787828601611b6c565b82525060208301358281111561204c57600080fd5b61205887828601611b6c565b60208301525095945050505050565b60006020828403121561207957600080fd5b81356001600160401b0381111561208f57600080fd5b61209b84828501611bdb565b949350505050565b6000602082840312156120b557600080fd5b81516001600160401b03808211156120cc57600080fd5b908301906101a082860312156120e157600080fd5b6120e96122b3565b6120f283611a10565b815261210060208401611a10565b602082015260408301518281111561211757600080fd5b61212387828601611af6565b60408301525060608301518281111561213b57600080fd5b61214787828601611af6565b60608301525061215960808401611a10565b608082015261216a60a08401611b61565b60a082015260c0838101519082015260e0808401519082015261010080840151908201526101208084015190820152610140808401519082015261016080840151908201526101809283015192810192909252509392505050565b6000602082840312156121d757600080fd5b5035919050565b6000602082840312156121f057600080fd5b5051919050565b60006020828403121561220957600080fd5b61136d82611cdb565b6000815180845260005b818110156122385760208185018101518683018201520161221c565b8181111561224a576000602083870101525b50601f01601f19169290920160200192915050565b821515815260406020820152600061209b6040830184612212565b60208152600061136d6020830184612212565b6020808252600c908201526b37b7363ca7b832b930ba37b960a11b604082015260600190565b6040516101a081016001600160401b03811182821017156122d6576122d6612400565b60405290565b604051601f8201601f191681016001600160401b038111828210171561230457612304612400565b604052919050565b60006001600160401b0382111561232557612325612400565b5060051b60200190565b60008261233e5761233e6123be565b500490565b600081600019048311821515161561235d5761235d6123a8565b500290565b600082821015612374576123746123a8565b500390565b600060001982141561238d5761238d6123a8565b5060010190565b6000826123a3576123a36123be565b500690565b634e487b7160e01b600052601160045260246000fd5b634e487b7160e01b600052601260045260246000fd5b634e487b7160e01b600052602160045260246000fd5b634e487b7160e01b600052603260045260246000fd5b634e487b7160e01b600052604160045260246000fd5b6001600160a01b03811681146118c957600080fd5b80151581146118c957600080fd5b600681106118c957600080fdfea2646970667358221220e8f641aeabf2c5ab41f8a1b7af50835936c9e191e067eb1943b0a7d0fd7fb89064736f6c63430008060033",
  "devdoc": {
    "kind": "dev",
    "methods": {
      "checkAcceptToken(address)": {
        "params": {
          "acceptToken": "token address, blockchain token is address(0)"
        },
        "returns": {
          "_0": "bool"
        }
      },
      "checkTokenListing(address,address,uint256[],uint256[])": {
        "params": {
          "addr": "NFT contract address",
          "amounts": "tokenId amount array (ERC721 can be null)",
          "tokenIds": "tokenId array"
        }
      },
      "getProtocolFee()": {
        "returns": {
          "_0": "fee (200 = 25%, 1,000 = 10%)"
        }
      },
      "getProtocolInviteFee()": {
        "returns": {
          "_0": "fee (200 = 25%, 1,000 = 10%)"
        }
      },
      "owner()": {
        "details": "Returns the address of the current owner."
      },
      "renounceOwnership()": {
        "details": "Leaves the contract without owner. It will not be possible to call `onlyOwner` functions anymore. Can only be called by the current owner. NOTE: Renouncing ownership will leave the contract without an owner, thereby removing any functionality that is only available to the owner."
      },
      "setProtocolFee(uint256)": {
        "params": {
          "fee": "fee (500 = 5%, 1,000 = 10%)"
        }
      },
      "setProtocolInviteFee(uint256)": {
        "params": {
          "fee": "fee (500 = 5%, 1,000 = 10%)"
        }
      },
      "transferOwnership(address)": {
        "details": "Transfers ownership of the contract to a new account (`newOwner`). Can only be called by the current owner."
      }
    },
    "title": "Helper.",
    "version": 1
  },
  "userdoc": {
    "kind": "user",
    "methods": {
      "checkAcceptToken(address)": {
        "notice": "check acceptToken support"
      },
      "checkNFTContract(address)": {
        "notice": "check nft contract, support erc721 & erc1155"
      },
      "checkNewTask(address,(address,address,uint256[],uint256[],address,uint8,uint256,uint256,uint256,uint256,uint256,uint256,uint256))": {
        "notice": "check the new task inputs"
      },
      "checkTokenListing(address,address,uint256[],uint256[])": {
        "notice": "checking seller listing NFTs ownership and balance"
      },
      "getDrawDelay()": {
        "notice": "get Draw Delay second for security"
      },
      "getProtocolFee()": {
        "notice": "get protocol fee for eache success TaskItem payment, default is 2%"
      },
      "getProtocolInviteFee()": {
        "notice": "get protocol fee for eache success TaskItem payment, default is 2%"
      },
      "getVRF()": {
        "notice": "get IVRF instance  "
      },
      "setAcceptTokens(address[],bool)": {
        "notice": "set the acceptTokens"
      },
      "setDrawDelay(uint32)": {
        "notice": "set Draw Delay for security"
      },
      "setExecutor(address)": {
        "notice": "set operator"
      },
      "setJoinLimitNum(uint32)": {
        "notice": "set the set MAX_PER_JOIN_NUM"
      },
      "setOperator(address,bool)": {
        "notice": "set operator"
      },
      "setProtocolFee(uint256)": {
        "notice": "set protocol fee for eache success TaskItem payment, default is 5%"
      },
      "setProtocolFeeRecipient(address)": {
        "notice": "set the ProtocolFeeRecipient"
      },
      "setProtocolInviteFee(uint256)": {
        "notice": "set protocol fee for eache success TaskItem payment, default is 5%"
      },
      "setProtocolInviteFeeRecipient(address)": {
        "notice": "set the ProtocolFeeRecipient"
      },
      "setVRF(address)": {
        "notice": "set the VRF"
      }
    },
    "notice": "It is the contract for protocol settings",
    "version": 1
  },
  "storageLayout": {
    "storage": [
      {
        "astId": 941,
        "contract": "contracts/other/Helper.sol:Helper",
        "label": "_owner",
        "offset": 0,
        "slot": "0",
        "type": "t_address"
      },
      {
        "astId": 12446,
        "contract": "contracts/other/Helper.sol:Helper",
        "label": "EXECUTOR",
        "offset": 0,
        "slot": "1",
        "type": "t_contract(IExecutor)8101"
      },
      {
        "astId": 12449,
        "contract": "contracts/other/Helper.sol:Helper",
        "label": "VRF",
        "offset": 0,
        "slot": "2",
        "type": "t_contract(IVRF)8515"
      },
      {
        "astId": 12452,
        "contract": "contracts/other/Helper.sol:Helper",
        "label": "AUTO_CLOSE",
        "offset": 0,
        "slot": "3",
        "type": "t_contract(IAuto)7802"
      },
      {
        "astId": 12455,
        "contract": "contracts/other/Helper.sol:Helper",
        "label": "AUTO_DRAW",
        "offset": 0,
        "slot": "4",
        "type": "t_contract(IAuto)7802"
      },
      {
        "astId": 12458,
        "contract": "contracts/other/Helper.sol:Helper",
        "label": "PROXY_PUNKS",
        "offset": 0,
        "slot": "5",
        "type": "t_contract(IProxyNFTStation)8361"
      },
      {
        "astId": 12460,
        "contract": "contracts/other/Helper.sol:Helper",
        "label": "feeRecipient",
        "offset": 0,
        "slot": "6",
        "type": "t_address"
      },
      {
        "astId": 12462,
        "contract": "contracts/other/Helper.sol:Helper",
        "label": "protocolInviteFee",
        "offset": 0,
        "slot": "7",
        "type": "t_uint256"
      },
      {
        "astId": 12464,
        "contract": "contracts/other/Helper.sol:Helper",
        "label": "inviteFeeRecipient",
        "offset": 0,
        "slot": "8",
        "type": "t_address"
      },
      {
        "astId": 12467,
        "contract": "contracts/other/Helper.sol:Helper",
        "label": "MAX_PER_JOIN_NUM",
        "offset": 20,
        "slot": "8",
        "type": "t_uint32"
      },
      {
        "astId": 12470,
        "contract": "contracts/other/Helper.sol:Helper",
        "label": "DRAW_DELAY_SEC",
        "offset": 24,
        "slot": "8",
        "type": "t_uint32"
      },
      {
        "astId": 12473,
        "contract": "contracts/other/Helper.sol:Helper",
        "label": "protocolFee",
        "offset": 0,
        "slot": "9",
        "type": "t_uint256"
      },
      {
        "astId": 12477,
        "contract": "contracts/other/Helper.sol:Helper",
        "label": "operators",
        "offset": 0,
        "slot": "10",
        "type": "t_mapping(t_address,t_bool)"
      },
      {
        "astId": 12481,
        "contract": "contracts/other/Helper.sol:Helper",
        "label": "acceptTokens",
        "offset": 0,
        "slot": "11",
        "type": "t_mapping(t_address,t_bool)"
      },
      {
        "astId": 12485,
        "contract": "contracts/other/Helper.sol:Helper",
        "label": "minTargetAmount",
        "offset": 0,
        "slot": "12",
        "type": "t_mapping(t_address,t_uint256)"
      }
    ],
    "types": {
      "t_address": {
        "encoding": "inplace",
        "label": "address",
        "numberOfBytes": "20"
      },
      "t_bool": {
        "encoding": "inplace",
        "label": "bool",
        "numberOfBytes": "1"
      },
      "t_contract(IAuto)7802": {
        "encoding": "inplace",
        "label": "contract IAuto",
        "numberOfBytes": "20"
      },
      "t_contract(IExecutor)8101": {
        "encoding": "inplace",
        "label": "contract IExecutor",
        "numberOfBytes": "20"
      },
      "t_contract(IProxyNFTStation)8361": {
        "encoding": "inplace",
        "label": "contract IProxyNFTStation",
        "numberOfBytes": "20"
      },
      "t_contract(IVRF)8515": {
        "encoding": "inplace",
        "label": "contract IVRF",
        "numberOfBytes": "20"
      },
      "t_mapping(t_address,t_bool)": {
        "encoding": "mapping",
        "key": "t_address",
        "label": "mapping(address => bool)",
        "numberOfBytes": "32",
        "value": "t_bool"
      },
      "t_mapping(t_address,t_uint256)": {
        "encoding": "mapping",
        "key": "t_address",
        "label": "mapping(address => uint256)",
        "numberOfBytes": "32",
        "value": "t_uint256"
      },
      "t_uint256": {
        "encoding": "inplace",
        "label": "uint256",
        "numberOfBytes": "32"
      },
      "t_uint32": {
        "encoding": "inplace",
        "label": "uint32",
        "numberOfBytes": "4"
      }
    }
  }
}