{
  "address": "0xCd514Aca4978EFd3B3DCE1CEeeF25E4cec749be8",
  "abi": [
    {
      "inputs": [
        {
          "internalType": "address",
          "name": "_executor",
          "type": "address"
        },
        {
          "internalType": "address",
          "name": "_weth",
          "type": "address"
        }
      ],
      "stateMutability": "nonpayable",
      "type": "constructor"
    },
    {
      "anonymous": false,
      "inputs": [
        {
          "indexed": true,
          "internalType": "address",
          "name": "executor",
          "type": "address"
        },
        {
          "indexed": true,
          "internalType": "address",
          "name": "user",
          "type": "address"
        },
        {
          "indexed": false,
          "internalType": "address",
          "name": "token",
          "type": "address"
        },
        {
          "indexed": false,
          "internalType": "uint256",
          "name": "amount",
          "type": "uint256"
        }
      ],
      "name": "Deposit",
      "type": "event"
    },
    {
      "anonymous": false,
      "inputs": [
        {
          "indexed": true,
          "internalType": "address",
          "name": "previousOwner",
          "type": "address"
        },
        {
          "indexed": true,
          "internalType": "address",
          "name": "newOwner",
          "type": "address"
        }
      ],
      "name": "OwnershipTransferred",
      "type": "event"
    },
    {
      "anonymous": false,
      "inputs": [
        {
          "indexed": true,
          "internalType": "address",
          "name": "executor",
          "type": "address"
        },
        {
          "indexed": true,
          "internalType": "address",
          "name": "user",
          "type": "address"
        },
        {
          "indexed": false,
          "internalType": "address",
          "name": "token",
          "type": "address"
        },
        {
          "indexed": false,
          "internalType": "uint256",
          "name": "amount",
          "type": "uint256"
        }
      ],
      "name": "Withdraw",
      "type": "event"
    },
    {
      "inputs": [],
      "name": "GAS_LIMIT",
      "outputs": [
        {
          "internalType": "uint256",
          "name": "",
          "type": "uint256"
        }
      ],
      "stateMutability": "view",
      "type": "function"
    },
    {
      "inputs": [],
      "name": "WETH",
      "outputs": [
        {
          "internalType": "address",
          "name": "",
          "type": "address"
        }
      ],
      "stateMutability": "view",
      "type": "function"
    },
    {
      "inputs": [
        {
          "internalType": "address",
          "name": "user",
          "type": "address"
        },
        {
          "internalType": "address",
          "name": "token",
          "type": "address"
        },
        {
          "internalType": "uint256",
          "name": "amount",
          "type": "uint256"
        }
      ],
      "name": "deposit",
      "outputs": [],
      "stateMutability": "payable",
      "type": "function"
    },
    {
      "inputs": [
        {
          "internalType": "address",
          "name": "",
          "type": "address"
        },
        {
          "internalType": "address",
          "name": "",
          "type": "address"
        }
      ],
      "name": "deposits",
      "outputs": [
        {
          "internalType": "uint256",
          "name": "",
          "type": "uint256"
        }
      ],
      "stateMutability": "view",
      "type": "function"
    },
    {
      "inputs": [
        {
          "internalType": "address",
          "name": "",
          "type": "address"
        }
      ],
      "name": "executors",
      "outputs": [
        {
          "internalType": "bool",
          "name": "",
          "type": "bool"
        }
      ],
      "stateMutability": "view",
      "type": "function"
    },
    {
      "inputs": [],
      "name": "owner",
      "outputs": [
        {
          "internalType": "address",
          "name": "",
          "type": "address"
        }
      ],
      "stateMutability": "view",
      "type": "function"
    },
    {
      "inputs": [],
      "name": "renounceOwnership",
      "outputs": [],
      "stateMutability": "nonpayable",
      "type": "function"
    },
    {
      "inputs": [
        {
          "internalType": "address",
          "name": "executor",
          "type": "address"
        }
      ],
      "name": "setExecutor",
      "outputs": [],
      "stateMutability": "nonpayable",
      "type": "function"
    },
    {
      "inputs": [
        {
          "internalType": "uint256",
          "name": "amount",
          "type": "uint256"
        }
      ],
      "name": "setGasLimit",
      "outputs": [],
      "stateMutability": "nonpayable",
      "type": "function"
    },
    {
      "inputs": [
        {
          "internalType": "address",
          "name": "_eth",
          "type": "address"
        }
      ],
      "name": "setWETH",
      "outputs": [],
      "stateMutability": "nonpayable",
      "type": "function"
    },
    {
      "inputs": [
        {
          "internalType": "address",
          "name": "newOwner",
          "type": "address"
        }
      ],
      "name": "transferOwnership",
      "outputs": [],
      "stateMutability": "nonpayable",
      "type": "function"
    },
    {
      "inputs": [
        {
          "internalType": "address",
          "name": "user",
          "type": "address"
        },
        {
          "internalType": "address",
          "name": "token",
          "type": "address"
        },
        {
          "internalType": "uint256",
          "name": "amount",
          "type": "uint256"
        }
      ],
      "name": "withdraw",
      "outputs": [],
      "stateMutability": "nonpayable",
      "type": "function"
    }
  ],
  "transactionHash": "0x04cc078d18f8af87e348b3cb7c955c3d6899668a3fd3337caf9cb55513ff0912",
  "args": [
    "0x893BAB56Cb5f4E319f402A5d0100566A363C9300",
    "0xbb4CdB9CBd36B01bD1cBaEBF2De08d9173bc095c"
  ],
  "numDeployments": 1,
  "solcInputHash": "8f5cdadc06674ad86189e872bbe06f3f",
  "bytecode": "0x6080604052620186a060015534801561001757600080fd5b506040516111af3803806111af833981016040819052610036916100eb565b61003f3361007f565b6001600160a01b039182166000908152600260205260409020805460ff1916600117905560048054919092166001600160a01b031990911617905561011e565b600080546001600160a01b038381166001600160a01b0319831681178455604051919092169283917f8be0079c531659141344cd1fd0a4f28419497f9722a3daafe3b4186f6b6457e09190a35050565b80516001600160a01b03811681146100e657600080fd5b919050565b600080604083850312156100fe57600080fd5b610107836100cf565b9150610115602084016100cf565b90509250929050565b6110828061012d6000396000f3fe6080604052600436106100a75760003560e01c80638f601f66116100645780638f601f66146101715780639ac2a011146101a9578063ad5c4648146101e9578063d9caed1214610209578063ee7d72b414610229578063f2fde38b1461024957600080fd5b8063091d2788146100ac5780631c3c0ea8146100d55780635b769f3c146100f7578063715018a6146101175780638340f5491461012c5780638da5cb5b1461013f575b600080fd5b3480156100b857600080fd5b506100c260015481565b6040519081526020015b60405180910390f35b3480156100e157600080fd5b506100f56100f0366004610f29565b610269565b005b34801561010357600080fd5b506100f5610112366004610f29565b610295565b34801561012357600080fd5b506100f56102bf565b6100f561013a366004610f77565b6102d3565b34801561014b57600080fd5b506000546001600160a01b03165b6040516001600160a01b0390911681526020016100cc565b34801561017d57600080fd5b506100c261018c366004610f44565b600360209081526000928352604080842090915290825290205481565b3480156101b557600080fd5b506101d96101c4366004610f29565b60026020526000908152604090205460ff1681565b60405190151581526020016100cc565b3480156101f557600080fd5b50600454610159906001600160a01b031681565b34801561021557600080fd5b506100f5610224366004610f77565b61038c565b34801561023557600080fd5b506100f5610244366004610fd5565b610437565b34801561025557600080fd5b506100f5610264366004610f29565b610444565b6102716104bd565b6001600160a01b03166000908152600260205260409020805460ff19166001179055565b61029d6104bd565b600480546001600160a01b0319166001600160a01b0392909216919091179055565b6102c76104bd565b6102d16000610517565b565b3360009081526002602052604090205460ff1615156001146103325760405162461bcd60e51b8152602060048201526013602482015272263ab1b5b99d1037b7363ca2bc32b1baba37b960691b60448201526064015b60405180910390fd5b61033e33848484610567565b604080516001600160a01b0384811682526020820184905285169133917f7cfff908a4b583f36430b25d75964c458d8ede8a99bd61be750e97ee1b2f3a9691015b60405180910390a3505050565b3360009081526002602052604090205460ff1615156001146103e65760405162461bcd60e51b8152602060048201526013602482015272263ab1b5b99d1037b7363ca2bc32b1baba37b960691b6044820152606401610329565b6103f233848484610b02565b604080516001600160a01b0384811682526020820184905285169133917f3115d1449a7b732c986cba18244e897a450f61e1bb8d589cd2e69e6c8924f9f7910161037f565b61043f6104bd565b600155565b61044c6104bd565b6001600160a01b0381166104b15760405162461bcd60e51b815260206004820152602660248201527f4f776e61626c653a206e6577206f776e657220697320746865207a65726f206160448201526564647265737360d01b6064820152608401610329565b6104ba81610517565b50565b6000546001600160a01b031633146102d15760405162461bcd60e51b815260206004820181905260248201527f4f776e61626c653a2063616c6c6572206973206e6f7420746865206f776e65726044820152606401610329565b600080546001600160a01b038381166001600160a01b0319831681178455604051919092169283917f8be0079c531659141344cd1fd0a4f28419497f9722a3daafe3b4186f6b6457e09190a35050565b6001600160a01b03821661087c5760006105818234610eee565b90508015610876576004546001600160a01b03166105f45760405162461bcd60e51b815260206004820152602a60248201527f777261707020746f6b656e206e6f7420736574206f72206d73672e76616c7565604482015269081d1bdbc81cdb585b1b60b21b6064820152608401610329565b600480546040516370a0823160e01b81526001600160a01b03878116938201939093528392909116906370a082319060240160206040518083038186803b15801561063e57600080fd5b505afa158015610652573d6000803e3d6000fd5b505050506040513d601f19601f820116820180604052508101906106769190610fee565b10156106bb5760405162461bcd60e51b8152602060048201526014602482015273496e73756666696369656e742062616c616e636560601b6044820152606401610329565b60048054604051636eb1769f60e11b81526001600160a01b038781169382019390935230602482015283929091169063dd62ed3e9060440160206040518083038186803b15801561070b57600080fd5b505afa15801561071f573d6000803e3d6000fd5b505050506040513d601f19601f820116820180604052508101906107439190610fee565b101561078a5760405162461bcd60e51b8152602060048201526016602482015275496e73756666696369656e7420616c6c6f77616e636560501b6044820152606401610329565b600480546040516323b872dd60e01b81526001600160a01b0387811693820193909352306024820152604481018490529116906323b872dd90606401602060405180830381600087803b1580156107e057600080fd5b505af11580156107f4573d6000803e3d6000fd5b505050506040513d601f19601f820116820180604052508101906108189190610fb3565b5060048054604051632e1a7d4d60e01b81529182018390526001600160a01b031690632e1a7d4d90602401600060405180830381600087803b15801561085d57600080fd5b505af1158015610871573d6000803e3d6000fd5b505050505b50610aa0565b6040516370a0823160e01b81526001600160a01b0384811660048301528291908416906370a082319060240160206040518083038186803b1580156108c057600080fd5b505afa1580156108d4573d6000803e3d6000fd5b505050506040513d601f19601f820116820180604052508101906108f89190610fee565b10156109465760405162461bcd60e51b815260206004820152601a60248201527f496e73756666696369656e7420746f6b656e2062616c616e63650000000000006044820152606401610329565b604051636eb1769f60e11b81526001600160a01b03848116600483015230602483015282919084169063dd62ed3e9060440160206040518083038186803b15801561099057600080fd5b505afa1580156109a4573d6000803e3d6000fd5b505050506040513d601f19601f820116820180604052508101906109c89190610fee565b1015610a165760405162461bcd60e51b815260206004820152601c60248201527f496e73756666696369656e7420746f6b656e20616c6c6f77616e6365000000006044820152606401610329565b6040516323b872dd60e01b81526001600160a01b038481166004830152306024830152604482018390528316906323b872dd90606401602060405180830381600087803b158015610a6657600080fd5b505af1158015610a7a573d6000803e3d6000fd5b505050506040513d601f19601f82011682018060405250810190610a9e9190610fb3565b505b6001600160a01b03808516600090815260036020908152604080832093861683529290522054610ad09082610f01565b6001600160a01b0394851660009081526003602090815260408083209590971682529390935293909120929092555050565b6001600160a01b03831615801590610b2357506001600160a01b0383163014155b610b615760405162461bcd60e51b815260206004820152600f60248201526e496e76616c6964206164647265737360881b6044820152606401610329565b60008111610b9a5760405162461bcd60e51b8152602060048201526006602482015265185b5bdd5b9d60d21b6044820152606401610329565b6001600160a01b03808516600090815260036020908152604080832093861683529290522054811115610c285760405162461bcd60e51b815260206004820152603060248201527f496e73756666696369656e74206465706f73697465642062616c616e6365206660448201526f37b9103a3434b99032bc32b1baba37b960811b6064820152608401610329565b6001600160a01b03808516600090815260036020908152604080832093861683529290522054610c589082610eee565b6001600160a01b03808616600090815260036020908152604080832093871680845293909152902091909155610dad5780471015610cc85760405162461bcd60e51b815260206004820152600d60248201526c4c61636b206f662066756e647360981b6044820152606401610329565b6001600160a01b0383163b15610d77576001546040516000916001600160a01b03861691849084818181858888f193505050503d8060008114610d27576040519150601f19603f3d011682016040523d82523d6000602084013e610d2c565b606091505b5050905080610d715760405162461bcd60e51b81526020600482015260116024820152701cd95b99081d985b1d594819985a5b1959607a1b6044820152606401610329565b50610ee8565b6040516001600160a01b0384169082156108fc029083906000818181858888f19350505050158015610d71573d6000803e3d6000fd5b6040516370a0823160e01b815230600482015281906001600160a01b038416906370a082319060240160206040518083038186803b158015610dee57600080fd5b505afa158015610e02573d6000803e3d6000fd5b505050506040513d601f19601f82011682018060405250810190610e269190610fee565b1015610e645760405162461bcd60e51b815260206004820152600d60248201526c2630b1b59037b3103a37b5b2b760991b6044820152606401610329565b60405163a9059cbb60e01b81526001600160a01b0384811660048301526024820183905283169063a9059cbb90604401602060405180830381600087803b158015610eae57600080fd5b505af1158015610ec2573d6000803e3d6000fd5b505050506040513d601f19601f82011682018060405250810190610ee69190610fb3565b505b50505050565b6000610efa828461101f565b9392505050565b6000610efa8284611007565b80356001600160a01b0381168114610f2457600080fd5b919050565b600060208284031215610f3b57600080fd5b610efa82610f0d565b60008060408385031215610f5757600080fd5b610f6083610f0d565b9150610f6e60208401610f0d565b90509250929050565b600080600060608486031215610f8c57600080fd5b610f9584610f0d565b9250610fa360208501610f0d565b9150604084013590509250925092565b600060208284031215610fc557600080fd5b81518015158114610efa57600080fd5b600060208284031215610fe757600080fd5b5035919050565b60006020828403121561100057600080fd5b5051919050565b6000821982111561101a5761101a611036565b500190565b60008282101561103157611031611036565b500390565b634e487b7160e01b600052601160045260246000fdfea2646970667358221220f719cf78f2d4c188ac3bdc906b433c1bfbf3d0c8f80c0faa94c6f55c19d91b9364736f6c63430008060033",
  "devdoc": {
    "kind": "dev",
    "methods": {
      "constructor": {
        "params": {
          "_executor": "executor address"
        }
      },
      "owner()": {
        "details": "Returns the address of the current owner."
      },
      "renounceOwnership()": {
        "details": "Leaves the contract without owner. It will not be possible to call `onlyOwner` functions anymore. Can only be called by the current owner. NOTE: Renouncing ownership will leave the contract without an owner, thereby removing any functionality that is only available to the owner."
      },
      "transferOwnership(address)": {
        "details": "Transfers ownership of the contract to a new account (`newOwner`). Can only be called by the current owner."
      }
    },
    "version": 1
  },
  "userdoc": {
    "kind": "user",
    "methods": {
      "constructor": {
        "notice": "Constructor"
      },
      "setExecutor(address)": {
        "notice": "set operator"
      },
      "setWETH(address)": {
        "notice": "set IWETH"
      }
    },
    "version": 1
  },
  "storageLayout": {
    "storage": [
      {
        "astId": 941,
        "contract": "contracts/ProxyTokenStation.sol:ProxyTokenStation",
        "label": "_owner",
        "offset": 0,
        "slot": "0",
        "type": "t_address"
      },
      {
        "astId": 7303,
        "contract": "contracts/ProxyTokenStation.sol:ProxyTokenStation",
        "label": "GAS_LIMIT",
        "offset": 0,
        "slot": "1",
        "type": "t_uint256"
      },
      {
        "astId": 7307,
        "contract": "contracts/ProxyTokenStation.sol:ProxyTokenStation",
        "label": "executors",
        "offset": 0,
        "slot": "2",
        "type": "t_mapping(t_address,t_bool)"
      },
      {
        "astId": 7313,
        "contract": "contracts/ProxyTokenStation.sol:ProxyTokenStation",
        "label": "deposits",
        "offset": 0,
        "slot": "3",
        "type": "t_mapping(t_address,t_mapping(t_address,t_uint256))"
      },
      {
        "astId": 7315,
        "contract": "contracts/ProxyTokenStation.sol:ProxyTokenStation",
        "label": "WETH",
        "offset": 0,
        "slot": "4",
        "type": "t_address"
      }
    ],
    "types": {
      "t_address": {
        "encoding": "inplace",
        "label": "address",
        "numberOfBytes": "20"
      },
      "t_bool": {
        "encoding": "inplace",
        "label": "bool",
        "numberOfBytes": "1"
      },
      "t_mapping(t_address,t_bool)": {
        "encoding": "mapping",
        "key": "t_address",
        "label": "mapping(address => bool)",
        "numberOfBytes": "32",
        "value": "t_bool"
      },
      "t_mapping(t_address,t_mapping(t_address,t_uint256))": {
        "encoding": "mapping",
        "key": "t_address",
        "label": "mapping(address => mapping(address => uint256))",
        "numberOfBytes": "32",
        "value": "t_mapping(t_address,t_uint256)"
      },
      "t_mapping(t_address,t_uint256)": {
        "encoding": "mapping",
        "key": "t_address",
        "label": "mapping(address => uint256)",
        "numberOfBytes": "32",
        "value": "t_uint256"
      },
      "t_uint256": {
        "encoding": "inplace",
        "label": "uint256",
        "numberOfBytes": "32"
      }
    }
  }
}